{
  "contractName": "VisitorAuth",
  "abi": [
    {
      "anonymous": false,
      "inputs": [
        {
          "indexed": true,
          "internalType": "address",
          "name": "visitorAddress",
          "type": "address"
        },
        {
          "indexed": false,
          "internalType": "string",
          "name": "name",
          "type": "string"
        },
        {
          "indexed": false,
          "internalType": "uint256",
          "name": "date",
          "type": "uint256"
        }
      ],
      "name": "VisitorRegistered",
      "type": "event"
    },
    {
      "inputs": [
        {
          "internalType": "address",
          "name": "",
          "type": "address"
        }
      ],
      "name": "visitors",
      "outputs": [
        {
          "internalType": "string",
          "name": "name",
          "type": "string"
        },
        {
          "internalType": "string",
          "name": "email",
          "type": "string"
        },
        {
          "internalType": "string",
          "name": "add",
          "type": "string"
        },
        {
          "internalType": "string",
          "name": "phone",
          "type": "string"
        },
        {
          "internalType": "string",
          "name": "purpose",
          "type": "string"
        },
        {
          "internalType": "string",
          "name": "types",
          "type": "string"
        },
        {
          "internalType": "string",
          "name": "toMeet",
          "type": "string"
        },
        {
          "internalType": "string",
          "name": "meetPersonemail",
          "type": "string"
        },
        {
          "internalType": "uint256",
          "name": "date",
          "type": "uint256"
        }
      ],
      "stateMutability": "view",
      "type": "function",
      "constant": true
    },
    {
      "inputs": [
        {
          "internalType": "string",
          "name": "_name",
          "type": "string"
        },
        {
          "internalType": "string",
          "name": "_email",
          "type": "string"
        },
        {
          "internalType": "string",
          "name": "_address",
          "type": "string"
        },
        {
          "internalType": "string",
          "name": "_phone",
          "type": "string"
        },
        {
          "internalType": "string",
          "name": "_purpose",
          "type": "string"
        },
        {
          "internalType": "string",
          "name": "_types",
          "type": "string"
        },
        {
          "internalType": "string",
          "name": "_toMeet",
          "type": "string"
        },
        {
          "internalType": "string",
          "name": "_meetPersonemail",
          "type": "string"
        },
        {
          "internalType": "uint256",
          "name": "_date",
          "type": "uint256"
        }
      ],
      "name": "registerVisitor",
      "outputs": [],
      "stateMutability": "nonpayable",
      "type": "function"
    },
    {
      "inputs": [
        {
          "internalType": "address",
          "name": "_visitorAddress",
          "type": "address"
        }
      ],
      "name": "getVisitor",
      "outputs": [
        {
          "components": [
            {
              "internalType": "string",
              "name": "name",
              "type": "string"
            },
            {
              "internalType": "string",
              "name": "email",
              "type": "string"
            },
            {
              "internalType": "string",
              "name": "add",
              "type": "string"
            },
            {
              "internalType": "string",
              "name": "phone",
              "type": "string"
            },
            {
              "internalType": "string",
              "name": "purpose",
              "type": "string"
            },
            {
              "internalType": "string",
              "name": "types",
              "type": "string"
            },
            {
              "internalType": "string",
              "name": "toMeet",
              "type": "string"
            },
            {
              "internalType": "string",
              "name": "meetPersonemail",
              "type": "string"
            },
            {
              "internalType": "uint256",
              "name": "date",
              "type": "uint256"
            }
          ],
          "internalType": "struct VisitorAuth.Visitor",
          "name": "",
          "type": "tuple"
        }
      ],
      "stateMutability": "view",
      "type": "function",
      "constant": true
    }
  ],
  "bytecode": "0x608060405234801561001057600080fd5b506115fb806100206000396000f3fe608060405234801561001057600080fd5b50600436106100415760003560e01c80630d0ea0c6146100465780639315fb4b1461007e578063c472ca941461009a575b600080fd5b610060600480360381019061005b9190610ca0565b6100ca565b60405161007599989796959493929190610d76565b60405180910390f35b61009860048036038101906100939190610f9c565b610558565b005b6100b460048036038101906100af9190610ca0565b6106ef565b6040516100c19190611295565b60405180910390f35b60006020528060005260406000206000915090508060000180546100ed906112e6565b80601f0160208091040260200160405190810160405280929190818152602001828054610119906112e6565b80156101665780601f1061013b57610100808354040283529160200191610166565b820191906000526020600020905b81548152906001019060200180831161014957829003601f168201915b50505050509080600101805461017b906112e6565b80601f01602080910402602001604051908101604052809291908181526020018280546101a7906112e6565b80156101f45780601f106101c9576101008083540402835291602001916101f4565b820191906000526020600020905b8154815290600101906020018083116101d757829003601f168201915b505050505090806002018054610209906112e6565b80601f0160208091040260200160405190810160405280929190818152602001828054610235906112e6565b80156102825780601f1061025757610100808354040283529160200191610282565b820191906000526020600020905b81548152906001019060200180831161026557829003601f168201915b505050505090806003018054610297906112e6565b80601f01602080910402602001604051908101604052809291908181526020018280546102c3906112e6565b80156103105780601f106102e557610100808354040283529160200191610310565b820191906000526020600020905b8154815290600101906020018083116102f357829003601f168201915b505050505090806004018054610325906112e6565b80601f0160208091040260200160405190810160405280929190818152602001828054610351906112e6565b801561039e5780601f106103735761010080835404028352916020019161039e565b820191906000526020600020905b81548152906001019060200180831161038157829003601f168201915b5050505050908060050180546103b3906112e6565b80601f01602080910402602001604051908101604052809291908181526020018280546103df906112e6565b801561042c5780601f106104015761010080835404028352916020019161042c565b820191906000526020600020905b81548152906001019060200180831161040f57829003601f168201915b505050505090806006018054610441906112e6565b80601f016020809104026020016040519081016040528092919081815260200182805461046d906112e6565b80156104ba5780601f1061048f576101008083540402835291602001916104ba565b820191906000526020600020905b81548152906001019060200180831161049d57829003601f168201915b5050505050908060070180546104cf906112e6565b80601f01602080910402602001604051908101604052809291908181526020018280546104fb906112e6565b80156105485780601f1061051d57610100808354040283529160200191610548565b820191906000526020600020905b81548152906001019060200180831161052b57829003601f168201915b5050505050908060080154905089565b6040518061012001604052808a8152602001898152602001888152602001878152602001868152602001858152602001848152602001838152602001828152506000803373ffffffffffffffffffffffffffffffffffffffff1673ffffffffffffffffffffffffffffffffffffffff16815260200190815260200160002060008201518160000190816105eb91906114c3565b50602082015181600101908161060191906114c3565b50604082015181600201908161061791906114c3565b50606082015181600301908161062d91906114c3565b50608082015181600401908161064391906114c3565b5060a082015181600501908161065991906114c3565b5060c082015181600601908161066f91906114c3565b5060e082015181600701908161068591906114c3565b5061010082015181600801559050503373ffffffffffffffffffffffffffffffffffffffff167f63dc9a48dab2c47e05241e5b11feac0b8f82849aa283e851df4bcb6a1f64c4f28a836040516106dc929190611595565b60405180910390a2505050505050505050565b6106f7610be2565b6000808373ffffffffffffffffffffffffffffffffffffffff1673ffffffffffffffffffffffffffffffffffffffff16815260200190815260200160002060405180610120016040529081600082018054610751906112e6565b80601f016020809104026020016040519081016040528092919081815260200182805461077d906112e6565b80156107ca5780601f1061079f576101008083540402835291602001916107ca565b820191906000526020600020905b8154815290600101906020018083116107ad57829003601f168201915b505050505081526020016001820180546107e3906112e6565b80601f016020809104026020016040519081016040528092919081815260200182805461080f906112e6565b801561085c5780601f106108315761010080835404028352916020019161085c565b820191906000526020600020905b81548152906001019060200180831161083f57829003601f168201915b50505050508152602001600282018054610875906112e6565b80601f01602080910402602001604051908101604052809291908181526020018280546108a1906112e6565b80156108ee5780601f106108c3576101008083540402835291602001916108ee565b820191906000526020600020905b8154815290600101906020018083116108d157829003601f168201915b50505050508152602001600382018054610907906112e6565b80601f0160208091040260200160405190810160405280929190818152602001828054610933906112e6565b80156109805780601f1061095557610100808354040283529160200191610980565b820191906000526020600020905b81548152906001019060200180831161096357829003601f168201915b50505050508152602001600482018054610999906112e6565b80601f01602080910402602001604051908101604052809291908181526020018280546109c5906112e6565b8015610a125780601f106109e757610100808354040283529160200191610a12565b820191906000526020600020905b8154815290600101906020018083116109f557829003601f168201915b50505050508152602001600582018054610a2b906112e6565b80601f0160208091040260200160405190810160405280929190818152602001828054610a57906112e6565b8015610aa45780601f10610a7957610100808354040283529160200191610aa4565b820191906000526020600020905b815481529060010190602001808311610a8757829003601f168201915b50505050508152602001600682018054610abd906112e6565b80601f0160208091040260200160405190810160405280929190818152602001828054610ae9906112e6565b8015610b365780601f10610b0b57610100808354040283529160200191610b36565b820191906000526020600020905b815481529060010190602001808311610b1957829003601f168201915b50505050508152602001600782018054610b4f906112e6565b80601f0160208091040260200160405190810160405280929190818152602001828054610b7b906112e6565b8015610bc85780601f10610b9d57610100808354040283529160200191610bc8565b820191906000526020600020905b815481529060010190602001808311610bab57829003601f168201915b505050505081526020016008820154815250509050919050565b6040518061012001604052806060815260200160608152602001606081526020016060815260200160608152602001606081526020016060815260200160608152602001600081525090565b6000604051905090565b600080fd5b600080fd5b600073ffffffffffffffffffffffffffffffffffffffff82169050919050565b6000610c6d82610c42565b9050919050565b610c7d81610c62565b8114610c8857600080fd5b50565b600081359050610c9a81610c74565b92915050565b600060208284031215610cb657610cb5610c38565b5b6000610cc484828501610c8b565b91505092915050565b600081519050919050565b600082825260208201905092915050565b60005b83811015610d07578082015181840152602081019050610cec565b60008484015250505050565b6000601f19601f8301169050919050565b6000610d2f82610ccd565b610d398185610cd8565b9350610d49818560208601610ce9565b610d5281610d13565b840191505092915050565b6000819050919050565b610d7081610d5d565b82525050565b6000610120820190508181036000830152610d91818c610d24565b90508181036020830152610da5818b610d24565b90508181036040830152610db9818a610d24565b90508181036060830152610dcd8189610d24565b90508181036080830152610de18188610d24565b905081810360a0830152610df58187610d24565b905081810360c0830152610e098186610d24565b905081810360e0830152610e1d8185610d24565b9050610e2d610100830184610d67565b9a9950505050505050505050565b600080fd5b600080fd5b7f4e487b7100000000000000000000000000000000000000000000000000000000600052604160045260246000fd5b610e7d82610d13565b810181811067ffffffffffffffff82111715610e9c57610e9b610e45565b5b80604052505050565b6000610eaf610c2e565b9050610ebb8282610e74565b919050565b600067ffffffffffffffff821115610edb57610eda610e45565b5b610ee482610d13565b9050602081019050919050565b82818337600083830152505050565b6000610f13610f0e84610ec0565b610ea5565b905082815260208101848484011115610f2f57610f2e610e40565b5b610f3a848285610ef1565b509392505050565b600082601f830112610f5757610f56610e3b565b5b8135610f67848260208601610f00565b91505092915050565b610f7981610d5d565b8114610f8457600080fd5b50565b600081359050610f9681610f70565b92915050565b60008060008060008060008060006101208a8c031215610fbf57610fbe610c38565b5b60008a013567ffffffffffffffff811115610fdd57610fdc610c3d565b5b610fe98c828d01610f42565b99505060208a013567ffffffffffffffff81111561100a57611009610c3d565b5b6110168c828d01610f42565b98505060408a013567ffffffffffffffff81111561103757611036610c3d565b5b6110438c828d01610f42565b97505060608a013567ffffffffffffffff81111561106457611063610c3d565b5b6110708c828d01610f42565b96505060808a013567ffffffffffffffff81111561109157611090610c3d565b5b61109d8c828d01610f42565b95505060a08a013567ffffffffffffffff8111156110be576110bd610c3d565b5b6110ca8c828d01610f42565b94505060c08a013567ffffffffffffffff8111156110eb576110ea610c3d565b5b6110f78c828d01610f42565b93505060e08a013567ffffffffffffffff81111561111857611117610c3d565b5b6111248c828d01610f42565b9250506101006111368c828d01610f87565b9150509295985092959850929598565b600082825260208201905092915050565b600061116282610ccd565b61116c8185611146565b935061117c818560208601610ce9565b61118581610d13565b840191505092915050565b61119981610d5d565b82525050565b60006101208301600083015184820360008601526111bd8282611157565b915050602083015184820360208601526111d78282611157565b915050604083015184820360408601526111f18282611157565b9150506060830151848203606086015261120b8282611157565b915050608083015184820360808601526112258282611157565b91505060a083015184820360a086015261123f8282611157565b91505060c083015184820360c08601526112598282611157565b91505060e083015184820360e08601526112738282611157565b91505061010083015161128a610100860182611190565b508091505092915050565b600060208201905081810360008301526112af818461119f565b905092915050565b7f4e487b7100000000000000000000000000000000000000000000000000000000600052602260045260246000fd5b600060028204905060018216806112fe57607f821691505b602082108103611311576113106112b7565b5b50919050565b60008190508160005260206000209050919050565b60006020601f8301049050919050565b600082821b905092915050565b6000600883026113797fffffffffffffffffffffffffffffffffffffffffffffffffffffffffffffffff8261133c565b611383868361133c565b95508019841693508086168417925050509392505050565b6000819050919050565b60006113c06113bb6113b684610d5d565b61139b565b610d5d565b9050919050565b6000819050919050565b6113da836113a5565b6113ee6113e6826113c7565b848454611349565b825550505050565b600090565b6114036113f6565b61140e8184846113d1565b505050565b5b81811015611432576114276000826113fb565b600181019050611414565b5050565b601f8211156114775761144881611317565b6114518461132c565b81016020851015611460578190505b61147461146c8561132c565b830182611413565b50505b505050565b600082821c905092915050565b600061149a6000198460080261147c565b1980831691505092915050565b60006114b38383611489565b9150826002028217905092915050565b6114cc82610ccd565b67ffffffffffffffff8111156114e5576114e4610e45565b5b6114ef82546112e6565b6114fa828285611436565b600060209050601f83116001811461152d576000841561151b578287015190505b61152585826114a7565b86555061158d565b601f19841661153b86611317565b60005b828110156115635784890151825560018201915060208501945060208101905061153e565b86831015611580578489015161157c601f891682611489565b8355505b6001600288020188555050505b505050505050565b600060408201905081810360008301526115af8185610d24565b90506115be6020830184610d67565b939250505056fea26469706673582212201470d3ae1564c2cd0aae9ae64f4829294cfd3f8f4d42ec0e377f1b4f31d380de64736f6c63430008130033",
  "immutableReferences": {},
  "source": "// SPDX-License-Identifier: MIT\npragma solidity ^0.8.19;\n\ncontract VisitorAuth {\n    struct Visitor {\n        string name;\n        string email;\n        string add;\n        string phone;\n        string purpose;\n        string types;\n        string toMeet;\n        string meetPersonemail;\n        uint256 date;\n    }\n\n    mapping(address => Visitor) public visitors;\n\n    event VisitorRegistered(\n        address indexed visitorAddress,\n        string name,\n        uint256 date\n    );\n\n    function registerVisitor(\n        string memory _name,\n        string memory _email,\n        string memory _address,\n        string memory _phone,\n        string memory _purpose,\n        string memory _types,\n        string memory _toMeet,\n        string memory _meetPersonemail,\n        uint256 _date\n    ) public {\n        visitors[msg.sender] = Visitor({\n            name: _name,\n            email: _email,\n            add: _address,\n            phone: _phone,\n            purpose: _purpose,\n            types: _types,\n            toMeet: _toMeet,\n            meetPersonemail: _meetPersonemail,\n            date: _date\n        });\n\n        emit VisitorRegistered(msg.sender, _name, _date);\n    }\n\n    function getVisitor(\n        address _visitorAddress\n    ) public view returns (Visitor memory) {\n        return visitors[_visitorAddress];\n    }\n}\n",
  "sourcePath": "/home/dev/blockchain/visitor-web/frontend/contracts/VisitorAuth.sol",
  "compiler": {
    "name": "solc",
    "version": "0.8.19+commit.7dd6d404.Emscripten.clang"
  },
  "schemaVersion": "3.4.16",
  "updatedAt": "2024-04-22T11:46:52.542Z",
  "networkType": "ethereum",
  "devdoc": {
    "kind": "dev",
    "methods": {},
    "version": 1
  },
  "userdoc": {
    "kind": "user",
    "methods": {},
    "version": 1
  }
}