{
  "contractName": "VisitorAuth",
  "abi": [
    {
      "anonymous": false,
      "inputs": [
        {
          "indexed": true,
          "internalType": "uint256",
          "name": "visitorId",
          "type": "uint256"
        },
        {
          "indexed": false,
          "internalType": "string",
          "name": "name",
          "type": "string"
        },
        {
          "indexed": false,
          "internalType": "uint256",
          "name": "date",
          "type": "uint256"
        }
      ],
      "name": "VisitorRegistered",
      "type": "event"
    },
    {
      "inputs": [],
      "name": "lastVisitorId",
      "outputs": [
        {
          "internalType": "uint256",
          "name": "",
          "type": "uint256"
        }
      ],
      "stateMutability": "view",
      "type": "function",
      "constant": true
    },
    {
      "inputs": [
        {
          "internalType": "uint256",
          "name": "",
          "type": "uint256"
        }
      ],
      "name": "visitors",
      "outputs": [
        {
          "internalType": "string",
          "name": "name",
          "type": "string"
        },
        {
          "internalType": "string",
          "name": "email",
          "type": "string"
        },
        {
          "internalType": "string",
          "name": "add",
          "type": "string"
        },
        {
          "internalType": "string",
          "name": "phone",
          "type": "string"
        },
        {
          "internalType": "string",
          "name": "purpose",
          "type": "string"
        },
        {
          "internalType": "string",
          "name": "types",
          "type": "string"
        },
        {
          "internalType": "string",
          "name": "toMeet",
          "type": "string"
        },
        {
          "internalType": "string",
          "name": "meetPersonemail",
          "type": "string"
        },
        {
          "internalType": "uint256",
          "name": "date",
          "type": "uint256"
        }
      ],
      "stateMutability": "view",
      "type": "function",
      "constant": true
    },
    {
      "inputs": [
        {
          "internalType": "string",
          "name": "_name",
          "type": "string"
        },
        {
          "internalType": "string",
          "name": "_email",
          "type": "string"
        },
        {
          "internalType": "string",
          "name": "_address",
          "type": "string"
        },
        {
          "internalType": "string",
          "name": "_phone",
          "type": "string"
        },
        {
          "internalType": "string",
          "name": "_purpose",
          "type": "string"
        },
        {
          "internalType": "string",
          "name": "_types",
          "type": "string"
        },
        {
          "internalType": "string",
          "name": "_toMeet",
          "type": "string"
        },
        {
          "internalType": "string",
          "name": "_meetPersonemail",
          "type": "string"
        },
        {
          "internalType": "uint256",
          "name": "_date",
          "type": "uint256"
        }
      ],
      "name": "registerVisitor",
      "outputs": [],
      "stateMutability": "nonpayable",
      "type": "function"
    },
    {
      "inputs": [
        {
          "internalType": "uint256",
          "name": "_visitorId",
          "type": "uint256"
        }
      ],
      "name": "getVisitor",
      "outputs": [
        {
          "components": [
            {
              "internalType": "string",
              "name": "name",
              "type": "string"
            },
            {
              "internalType": "string",
              "name": "email",
              "type": "string"
            },
            {
              "internalType": "string",
              "name": "add",
              "type": "string"
            },
            {
              "internalType": "string",
              "name": "phone",
              "type": "string"
            },
            {
              "internalType": "string",
              "name": "purpose",
              "type": "string"
            },
            {
              "internalType": "string",
              "name": "types",
              "type": "string"
            },
            {
              "internalType": "string",
              "name": "toMeet",
              "type": "string"
            },
            {
              "internalType": "string",
              "name": "meetPersonemail",
              "type": "string"
            },
            {
              "internalType": "uint256",
              "name": "date",
              "type": "uint256"
            }
          ],
          "internalType": "struct VisitorAuth.Visitor",
          "name": "",
          "type": "tuple"
        }
      ],
      "stateMutability": "view",
      "type": "function",
      "constant": true
    },
    {
      "inputs": [],
      "name": "getAllVisitors",
      "outputs": [
        {
          "components": [
            {
              "internalType": "string",
              "name": "name",
              "type": "string"
            },
            {
              "internalType": "string",
              "name": "email",
              "type": "string"
            },
            {
              "internalType": "string",
              "name": "add",
              "type": "string"
            },
            {
              "internalType": "string",
              "name": "phone",
              "type": "string"
            },
            {
              "internalType": "string",
              "name": "purpose",
              "type": "string"
            },
            {
              "internalType": "string",
              "name": "types",
              "type": "string"
            },
            {
              "internalType": "string",
              "name": "toMeet",
              "type": "string"
            },
            {
              "internalType": "string",
              "name": "meetPersonemail",
              "type": "string"
            },
            {
              "internalType": "uint256",
              "name": "date",
              "type": "uint256"
            }
          ],
          "internalType": "struct VisitorAuth.Visitor[]",
          "name": "",
          "type": "tuple[]"
        }
      ],
      "stateMutability": "view",
      "type": "function",
      "constant": true
    },
    {
      "inputs": [
        {
          "internalType": "uint256",
          "name": "_month",
          "type": "uint256"
        }
      ],
      "name": "getTotalVisitorsByMonth",
      "outputs": [
        {
          "internalType": "uint256",
          "name": "",
          "type": "uint256"
        }
      ],
      "stateMutability": "view",
      "type": "function",
      "constant": true
    },
    {
      "inputs": [
        {
          "internalType": "uint256",
          "name": "_week",
          "type": "uint256"
        }
      ],
      "name": "getTotalVisitorsByWeek",
      "outputs": [
        {
          "internalType": "uint256",
          "name": "",
          "type": "uint256"
        }
      ],
      "stateMutability": "view",
      "type": "function",
      "constant": true
    }
  ],
  "bytecode": "0x6080604052600060015534801561001557600080fd5b50612054806100256000396000f3fe608060405234801561001057600080fd5b506004361061007d5760003560e01c8063af50a0e21161005b578063af50a0e214610106578063bf6e60bb14610136578063e653ee7c14610154578063f8138e95146101725761007d565b806342b71a361461008257806372f13474146100ba5780639315fb4b146100ea575b600080fd5b61009c6004803603810190610097919061139b565b6101a2565b6040516100b199989796959493929190611467565b60405180910390f35b6100d460048036038101906100cf919061139b565b610630565b6040516100e1919061152c565b60405180910390f35b61010460048036038101906100ff919061167c565b610697565b005b610120600480360381019061011b919061139b565b610808565b60405161012d919061152c565b60405180910390f35b61013e61086f565b60405161014b919061152c565b60405180910390f35b61015c610875565b6040516101699190611a37565b60405180910390f35b61018c6004803603810190610187919061139b565b610dde565b6040516101999190611b4f565b60405180910390f35b60006020528060005260406000206000915090508060000180546101c590611ba0565b80601f01602080910402602001604051908101604052809291908181526020018280546101f190611ba0565b801561023e5780601f106102135761010080835404028352916020019161023e565b820191906000526020600020905b81548152906001019060200180831161022157829003601f168201915b50505050509080600101805461025390611ba0565b80601f016020809104026020016040519081016040528092919081815260200182805461027f90611ba0565b80156102cc5780601f106102a1576101008083540402835291602001916102cc565b820191906000526020600020905b8154815290600101906020018083116102af57829003601f168201915b5050505050908060020180546102e190611ba0565b80601f016020809104026020016040519081016040528092919081815260200182805461030d90611ba0565b801561035a5780601f1061032f5761010080835404028352916020019161035a565b820191906000526020600020905b81548152906001019060200180831161033d57829003601f168201915b50505050509080600301805461036f90611ba0565b80601f016020809104026020016040519081016040528092919081815260200182805461039b90611ba0565b80156103e85780601f106103bd576101008083540402835291602001916103e8565b820191906000526020600020905b8154815290600101906020018083116103cb57829003601f168201915b5050505050908060040180546103fd90611ba0565b80601f016020809104026020016040519081016040528092919081815260200182805461042990611ba0565b80156104765780601f1061044b57610100808354040283529160200191610476565b820191906000526020600020905b81548152906001019060200180831161045957829003601f168201915b50505050509080600501805461048b90611ba0565b80601f01602080910402602001604051908101604052809291908181526020018280546104b790611ba0565b80156105045780601f106104d957610100808354040283529160200191610504565b820191906000526020600020905b8154815290600101906020018083116104e757829003601f168201915b50505050509080600601805461051990611ba0565b80601f016020809104026020016040519081016040528092919081815260200182805461054590611ba0565b80156105925780601f1061056757610100808354040283529160200191610592565b820191906000526020600020905b81548152906001019060200180831161057557829003601f168201915b5050505050908060070180546105a790611ba0565b80601f01602080910402602001604051908101604052809291908181526020018280546105d390611ba0565b80156106205780601f106105f557610100808354040283529160200191610620565b820191906000526020600020905b81548152906001019060200180831161060357829003601f168201915b5050505050908060080154905089565b600080600090506000600190505b600154811161068d5783610666600080848152602001908152602001600020600801546112a5565b0361067a57818061067690611c00565b9250505b808061068590611c00565b91505061063e565b5080915050919050565b600160008154809291906106aa90611c00565b91905055506040518061012001604052808a815260200189815260200188815260200187815260200186815260200185815260200184815260200183815260200182815250600080600154815260200190815260200160002060008201518160000190816107189190611df4565b50602082015181600101908161072e9190611df4565b5060408201518160020190816107449190611df4565b50606082015181600301908161075a9190611df4565b5060808201518160040190816107709190611df4565b5060a08201518160050190816107869190611df4565b5060c082015181600601908161079c9190611df4565b5060e08201518160070190816107b29190611df4565b5061010082015181600801559050506001547fbd9034def32d12808952cf3604a22383c588debbc3db133d61fab9c6f37b6f758a836040516107f5929190611ec6565b60405180910390a2505050505050505050565b600080600090506000600190505b6001548111610865578361083e600080848152602001908152602001600020600801546112d5565b0361085257818061084e90611c00565b9250505b808061085d90611c00565b915050610816565b5080915050919050565b60015481565b6060600060015467ffffffffffffffff81111561089557610894611551565b5b6040519080825280602002602001820160405280156108ce57816020015b6108bb611305565b8152602001906001900390816108b35790505b5090506000600190505b6001548111610dd6576000808281526020019081526020016000206040518061012001604052908160008201805461090f90611ba0565b80601f016020809104026020016040519081016040528092919081815260200182805461093b90611ba0565b80156109885780601f1061095d57610100808354040283529160200191610988565b820191906000526020600020905b81548152906001019060200180831161096b57829003601f168201915b505050505081526020016001820180546109a190611ba0565b80601f01602080910402602001604051908101604052809291908181526020018280546109cd90611ba0565b8015610a1a5780601f106109ef57610100808354040283529160200191610a1a565b820191906000526020600020905b8154815290600101906020018083116109fd57829003601f168201915b50505050508152602001600282018054610a3390611ba0565b80601f0160208091040260200160405190810160405280929190818152602001828054610a5f90611ba0565b8015610aac5780601f10610a8157610100808354040283529160200191610aac565b820191906000526020600020905b815481529060010190602001808311610a8f57829003601f168201915b50505050508152602001600382018054610ac590611ba0565b80601f0160208091040260200160405190810160405280929190818152602001828054610af190611ba0565b8015610b3e5780601f10610b1357610100808354040283529160200191610b3e565b820191906000526020600020905b815481529060010190602001808311610b2157829003601f168201915b50505050508152602001600482018054610b5790611ba0565b80601f0160208091040260200160405190810160405280929190818152602001828054610b8390611ba0565b8015610bd05780601f10610ba557610100808354040283529160200191610bd0565b820191906000526020600020905b815481529060010190602001808311610bb357829003601f168201915b50505050508152602001600582018054610be990611ba0565b80601f0160208091040260200160405190810160405280929190818152602001828054610c1590611ba0565b8015610c625780601f10610c3757610100808354040283529160200191610c62565b820191906000526020600020905b815481529060010190602001808311610c4557829003601f168201915b50505050508152602001600682018054610c7b90611ba0565b80601f0160208091040260200160405190810160405280929190818152602001828054610ca790611ba0565b8015610cf45780601f10610cc957610100808354040283529160200191610cf4565b820191906000526020600020905b815481529060010190602001808311610cd757829003601f168201915b50505050508152602001600782018054610d0d90611ba0565b80601f0160208091040260200160405190810160405280929190818152602001828054610d3990611ba0565b8015610d865780601f10610d5b57610100808354040283529160200191610d86565b820191906000526020600020905b815481529060010190602001808311610d6957829003601f168201915b5050505050815260200160088201548152505082600183610da79190611ef6565b81518110610db857610db7611f2a565b5b60200260200101819052508080610dce90611c00565b9150506108d8565b508091505090565b610de6611305565b60008083815260200190815260200160002060405180610120016040529081600082018054610e1490611ba0565b80601f0160208091040260200160405190810160405280929190818152602001828054610e4090611ba0565b8015610e8d5780601f10610e6257610100808354040283529160200191610e8d565b820191906000526020600020905b815481529060010190602001808311610e7057829003601f168201915b50505050508152602001600182018054610ea690611ba0565b80601f0160208091040260200160405190810160405280929190818152602001828054610ed290611ba0565b8015610f1f5780601f10610ef457610100808354040283529160200191610f1f565b820191906000526020600020905b815481529060010190602001808311610f0257829003601f168201915b50505050508152602001600282018054610f3890611ba0565b80601f0160208091040260200160405190810160405280929190818152602001828054610f6490611ba0565b8015610fb15780601f10610f8657610100808354040283529160200191610fb1565b820191906000526020600020905b815481529060010190602001808311610f9457829003601f168201915b50505050508152602001600382018054610fca90611ba0565b80601f0160208091040260200160405190810160405280929190818152602001828054610ff690611ba0565b80156110435780601f1061101857610100808354040283529160200191611043565b820191906000526020600020905b81548152906001019060200180831161102657829003601f168201915b5050505050815260200160048201805461105c90611ba0565b80601f016020809104026020016040519081016040528092919081815260200182805461108890611ba0565b80156110d55780601f106110aa576101008083540402835291602001916110d5565b820191906000526020600020905b8154815290600101906020018083116110b857829003601f168201915b505050505081526020016005820180546110ee90611ba0565b80601f016020809104026020016040519081016040528092919081815260200182805461111a90611ba0565b80156111675780601f1061113c57610100808354040283529160200191611167565b820191906000526020600020905b81548152906001019060200180831161114a57829003601f168201915b5050505050815260200160068201805461118090611ba0565b80601f01602080910402602001604051908101604052809291908181526020018280546111ac90611ba0565b80156111f95780601f106111ce576101008083540402835291602001916111f9565b820191906000526020600020905b8154815290600101906020018083116111dc57829003601f168201915b5050505050815260200160078201805461121290611ba0565b80601f016020809104026020016040519081016040528092919081815260200182805461123e90611ba0565b801561128b5780601f106112605761010080835404028352916020019161128b565b820191906000526020600020905b81548152906001019060200180831161126e57829003601f168201915b505050505081526020016008820154815250509050919050565b60006034600462015180846112ba9190611f88565b6112c49190611fb9565b6112ce9190611fed565b9050919050565b60006007600462015180846112ea9190611f88565b6112f49190611fb9565b6112fe9190611fed565b9050919050565b6040518061012001604052806060815260200160608152602001606081526020016060815260200160608152602001606081526020016060815260200160608152602001600081525090565b6000604051905090565b600080fd5b600080fd5b6000819050919050565b61137881611365565b811461138357600080fd5b50565b6000813590506113958161136f565b92915050565b6000602082840312156113b1576113b061135b565b5b60006113bf84828501611386565b91505092915050565b600081519050919050565b600082825260208201905092915050565b60005b838110156114025780820151818401526020810190506113e7565b60008484015250505050565b6000601f19601f8301169050919050565b600061142a826113c8565b61143481856113d3565b93506114448185602086016113e4565b61144d8161140e565b840191505092915050565b61146181611365565b82525050565b6000610120820190508181036000830152611482818c61141f565b90508181036020830152611496818b61141f565b905081810360408301526114aa818a61141f565b905081810360608301526114be818961141f565b905081810360808301526114d2818861141f565b905081810360a08301526114e6818761141f565b905081810360c08301526114fa818661141f565b905081810360e083015261150e818561141f565b905061151e610100830184611458565b9a9950505050505050505050565b60006020820190506115416000830184611458565b92915050565b600080fd5b600080fd5b7f4e487b7100000000000000000000000000000000000000000000000000000000600052604160045260246000fd5b6115898261140e565b810181811067ffffffffffffffff821117156115a8576115a7611551565b5b80604052505050565b60006115bb611351565b90506115c78282611580565b919050565b600067ffffffffffffffff8211156115e7576115e6611551565b5b6115f08261140e565b9050602081019050919050565b82818337600083830152505050565b600061161f61161a846115cc565b6115b1565b90508281526020810184848401111561163b5761163a61154c565b5b6116468482856115fd565b509392505050565b600082601f83011261166357611662611547565b5b813561167384826020860161160c565b91505092915050565b60008060008060008060008060006101208a8c03121561169f5761169e61135b565b5b60008a013567ffffffffffffffff8111156116bd576116bc611360565b5b6116c98c828d0161164e565b99505060208a013567ffffffffffffffff8111156116ea576116e9611360565b5b6116f68c828d0161164e565b98505060408a013567ffffffffffffffff81111561171757611716611360565b5b6117238c828d0161164e565b97505060608a013567ffffffffffffffff81111561174457611743611360565b5b6117508c828d0161164e565b96505060808a013567ffffffffffffffff81111561177157611770611360565b5b61177d8c828d0161164e565b95505060a08a013567ffffffffffffffff81111561179e5761179d611360565b5b6117aa8c828d0161164e565b94505060c08a013567ffffffffffffffff8111156117cb576117ca611360565b5b6117d78c828d0161164e565b93505060e08a013567ffffffffffffffff8111156117f8576117f7611360565b5b6118048c828d0161164e565b9250506101006118168c828d01611386565b9150509295985092959850929598565b600081519050919050565b600082825260208201905092915050565b6000819050602082019050919050565b600082825260208201905092915050565b600061186e826113c8565b6118788185611852565b93506118888185602086016113e4565b6118918161140e565b840191505092915050565b6118a581611365565b82525050565b60006101208301600083015184820360008601526118c98282611863565b915050602083015184820360208601526118e38282611863565b915050604083015184820360408601526118fd8282611863565b915050606083015184820360608601526119178282611863565b915050608083015184820360808601526119318282611863565b91505060a083015184820360a086015261194b8282611863565b91505060c083015184820360c08601526119658282611863565b91505060e083015184820360e086015261197f8282611863565b91505061010083015161199661010086018261189c565b508091505092915050565b60006119ad83836118ab565b905092915050565b6000602082019050919050565b60006119cd82611826565b6119d78185611831565b9350836020820285016119e985611842565b8060005b85811015611a255784840389528151611a0685826119a1565b9450611a11836119b5565b925060208a019950506001810190506119ed565b50829750879550505050505092915050565b60006020820190508181036000830152611a5181846119c2565b905092915050565b6000610120830160008301518482036000860152611a778282611863565b91505060208301518482036020860152611a918282611863565b91505060408301518482036040860152611aab8282611863565b91505060608301518482036060860152611ac58282611863565b91505060808301518482036080860152611adf8282611863565b91505060a083015184820360a0860152611af98282611863565b91505060c083015184820360c0860152611b138282611863565b91505060e083015184820360e0860152611b2d8282611863565b915050610100830151611b4461010086018261189c565b508091505092915050565b60006020820190508181036000830152611b698184611a59565b905092915050565b7f4e487b7100000000000000000000000000000000000000000000000000000000600052602260045260246000fd5b60006002820490506001821680611bb857607f821691505b602082108103611bcb57611bca611b71565b5b50919050565b7f4e487b7100000000000000000000000000000000000000000000000000000000600052601160045260246000fd5b6000611c0b82611365565b91507fffffffffffffffffffffffffffffffffffffffffffffffffffffffffffffffff8203611c3d57611c3c611bd1565b5b600182019050919050565b60008190508160005260206000209050919050565b60006020601f8301049050919050565b600082821b905092915050565b600060088302611caa7fffffffffffffffffffffffffffffffffffffffffffffffffffffffffffffffff82611c6d565b611cb48683611c6d565b95508019841693508086168417925050509392505050565b6000819050919050565b6000611cf1611cec611ce784611365565b611ccc565b611365565b9050919050565b6000819050919050565b611d0b83611cd6565b611d1f611d1782611cf8565b848454611c7a565b825550505050565b600090565b611d34611d27565b611d3f818484611d02565b505050565b5b81811015611d6357611d58600082611d2c565b600181019050611d45565b5050565b601f821115611da857611d7981611c48565b611d8284611c5d565b81016020851015611d91578190505b611da5611d9d85611c5d565b830182611d44565b50505b505050565b600082821c905092915050565b6000611dcb60001984600802611dad565b1980831691505092915050565b6000611de48383611dba565b9150826002028217905092915050565b611dfd826113c8565b67ffffffffffffffff811115611e1657611e15611551565b5b611e208254611ba0565b611e2b828285611d67565b600060209050601f831160018114611e5e5760008415611e4c578287015190505b611e568582611dd8565b865550611ebe565b601f198416611e6c86611c48565b60005b82811015611e9457848901518255600182019150602085019450602081019050611e6f565b86831015611eb15784890151611ead601f891682611dba565b8355505b6001600288020188555050505b505050505050565b60006040820190508181036000830152611ee0818561141f565b9050611eef6020830184611458565b9392505050565b6000611f0182611365565b9150611f0c83611365565b9250828203905081811115611f2457611f23611bd1565b5b92915050565b7f4e487b7100000000000000000000000000000000000000000000000000000000600052603260045260246000fd5b7f4e487b7100000000000000000000000000000000000000000000000000000000600052601260045260246000fd5b6000611f9382611365565b9150611f9e83611365565b925082611fae57611fad611f59565b5b828204905092915050565b6000611fc482611365565b9150611fcf83611365565b9250828201905080821115611fe757611fe6611bd1565b5b92915050565b6000611ff882611365565b915061200383611365565b92508261201357612012611f59565b5b82820690509291505056fea2646970667358221220317618d6bca12104d187724b30f1742f1d1a2b4de99fdce32ab0e3865d58e2d864736f6c63430008130033",
  "immutableReferences": {},
  "source": "// SPDX-License-Identifier: MIT\npragma solidity ^0.8.19;\n\ncontract VisitorAuth {\n    struct Visitor {\n        string name;\n        string email;\n        string add;\n        string phone;\n        string purpose;\n        string types;\n        string toMeet;\n        string meetPersonemail;\n        uint256 date;\n    }\n\n    mapping(uint256 => Visitor) public visitors;\n    uint256 public lastVisitorId = 0;\n\n    event VisitorRegistered(\n        uint256 indexed visitorId,\n        string name,\n        uint256 date\n    );\n\n    // Function to register a visitor\n    function registerVisitor(\n        string memory _name,\n        string memory _email,\n        string memory _address,\n        string memory _phone,\n        string memory _purpose,\n        string memory _types,\n        string memory _toMeet,\n        string memory _meetPersonemail,\n        uint256 _date // Date in \"DD-MM-YYYY\" format\n    ) public {\n        lastVisitorId++;\n        // Parse the date and store it in Unix timestamp format\n        visitors[lastVisitorId] = Visitor({\n            name: _name,\n            email: _email,\n            add: _address,\n            phone: _phone,\n            purpose: _purpose,\n            types: _types,\n            toMeet: _toMeet,\n            meetPersonemail: _meetPersonemail,\n            date: _date\n        });\n        // Emit an event for the registered visitor\n        emit VisitorRegistered(lastVisitorId, _name, _date);\n    }\n\n    // Function to retrieve a visitor by ID\n    function getVisitor(\n        uint256 _visitorId\n    ) public view returns (Visitor memory) {\n        return visitors[_visitorId];\n    }\n\n    // Function to retrieve all visitors\n    function getAllVisitors() public view returns (Visitor[] memory) {\n        Visitor[] memory allVisitors = new Visitor[](lastVisitorId);\n        for (uint256 i = 1; i <= lastVisitorId; i++) {\n            allVisitors[i - 1] = visitors[i];\n        }\n        return allVisitors;\n    }\n\n    // Function to calculate total visitors by month\n    function getTotalVisitorsByMonth(\n        uint256 _month\n    ) public view returns (uint256) {\n        uint256 totalVisitors = 0;\n        for (uint256 i = 1; i <= lastVisitorId; i++) {\n            if (getMonth(visitors[i].date) == _month) {\n                totalVisitors++;\n            }\n        }\n        return totalVisitors;\n    }\n\n    // Function to calculate total visitors by week\n    function getTotalVisitorsByWeek(\n        uint256 _week\n    ) public view returns (uint256) {\n        uint256 totalVisitors = 0;\n        for (uint256 i = 1; i <= lastVisitorId; i++) {\n            if (getWeek(visitors[i].date) == _week) {\n                totalVisitors++;\n            }\n        }\n        return totalVisitors;\n    }\n\n    // Internal function to extract month from Unix timestamp\n    function getMonth(uint256 _timestamp) internal pure returns (uint256) {\n        return ((_timestamp / 86400) + 4) % 7;\n    }\n\n    // Internal function to extract week from Unix timestamp\n    function getWeek(uint256 _timestamp) internal pure returns (uint256) {\n        return ((_timestamp / 86400) + 4) % 52;\n    }\n}\n",
  "sourcePath": "/home/dev/blockchain/visitor-web/frontend/contracts/VisitorAuth.sol",
  "compiler": {
    "name": "solc",
    "version": "0.8.19+commit.7dd6d404.Emscripten.clang"
  },
  "schemaVersion": "3.4.16",
  "updatedAt": "2024-05-03T11:05:42.271Z",
  "networkType": "ethereum",
  "devdoc": {
    "kind": "dev",
    "methods": {},
    "version": 1
  },
  "userdoc": {
    "kind": "user",
    "methods": {},
    "version": 1
  }
}