{
  "contractName": "VisitorAuth",
  "abi": [
    {
      "anonymous": false,
      "inputs": [
        {
          "indexed": true,
          "internalType": "uint256",
          "name": "visitorId",
          "type": "uint256"
        },
        {
          "indexed": false,
          "internalType": "string",
          "name": "name",
          "type": "string"
        },
        {
          "indexed": false,
          "internalType": "string",
          "name": "date",
          "type": "string"
        }
      ],
      "name": "VisitorRegistered",
      "type": "event"
    },
    {
      "inputs": [],
      "name": "lastVisitorId",
      "outputs": [
        {
          "internalType": "uint256",
          "name": "",
          "type": "uint256"
        }
      ],
      "stateMutability": "view",
      "type": "function",
      "constant": true
    },
    {
      "inputs": [
        {
          "internalType": "uint256",
          "name": "",
          "type": "uint256"
        }
      ],
      "name": "visitors",
      "outputs": [
        {
          "internalType": "string",
          "name": "name",
          "type": "string"
        },
        {
          "internalType": "string",
          "name": "email",
          "type": "string"
        },
        {
          "internalType": "string",
          "name": "add",
          "type": "string"
        },
        {
          "internalType": "string",
          "name": "phone",
          "type": "string"
        },
        {
          "internalType": "string",
          "name": "purpose",
          "type": "string"
        },
        {
          "internalType": "string",
          "name": "types",
          "type": "string"
        },
        {
          "internalType": "string",
          "name": "toMeet",
          "type": "string"
        },
        {
          "internalType": "string",
          "name": "meetPersonemail",
          "type": "string"
        },
        {
          "internalType": "string",
          "name": "date",
          "type": "string"
        }
      ],
      "stateMutability": "view",
      "type": "function",
      "constant": true
    },
    {
      "inputs": [
        {
          "internalType": "string",
          "name": "_name",
          "type": "string"
        },
        {
          "internalType": "string",
          "name": "_email",
          "type": "string"
        },
        {
          "internalType": "string",
          "name": "_address",
          "type": "string"
        },
        {
          "internalType": "string",
          "name": "_phone",
          "type": "string"
        },
        {
          "internalType": "string",
          "name": "_purpose",
          "type": "string"
        },
        {
          "internalType": "string",
          "name": "_types",
          "type": "string"
        },
        {
          "internalType": "string",
          "name": "_toMeet",
          "type": "string"
        },
        {
          "internalType": "string",
          "name": "_meetPersonemail",
          "type": "string"
        },
        {
          "internalType": "string",
          "name": "_date",
          "type": "string"
        }
      ],
      "name": "registerVisitor",
      "outputs": [],
      "stateMutability": "nonpayable",
      "type": "function"
    },
    {
      "inputs": [
        {
          "internalType": "uint256",
          "name": "_visitorId",
          "type": "uint256"
        }
      ],
      "name": "getVisitor",
      "outputs": [
        {
          "components": [
            {
              "internalType": "string",
              "name": "name",
              "type": "string"
            },
            {
              "internalType": "string",
              "name": "email",
              "type": "string"
            },
            {
              "internalType": "string",
              "name": "add",
              "type": "string"
            },
            {
              "internalType": "string",
              "name": "phone",
              "type": "string"
            },
            {
              "internalType": "string",
              "name": "purpose",
              "type": "string"
            },
            {
              "internalType": "string",
              "name": "types",
              "type": "string"
            },
            {
              "internalType": "string",
              "name": "toMeet",
              "type": "string"
            },
            {
              "internalType": "string",
              "name": "meetPersonemail",
              "type": "string"
            },
            {
              "internalType": "string",
              "name": "date",
              "type": "string"
            }
          ],
          "internalType": "struct VisitorAuth.Visitor",
          "name": "",
          "type": "tuple"
        }
      ],
      "stateMutability": "view",
      "type": "function",
      "constant": true
    },
    {
      "inputs": [],
      "name": "getAllVisitors",
      "outputs": [
        {
          "components": [
            {
              "internalType": "string",
              "name": "name",
              "type": "string"
            },
            {
              "internalType": "string",
              "name": "email",
              "type": "string"
            },
            {
              "internalType": "string",
              "name": "add",
              "type": "string"
            },
            {
              "internalType": "string",
              "name": "phone",
              "type": "string"
            },
            {
              "internalType": "string",
              "name": "purpose",
              "type": "string"
            },
            {
              "internalType": "string",
              "name": "types",
              "type": "string"
            },
            {
              "internalType": "string",
              "name": "toMeet",
              "type": "string"
            },
            {
              "internalType": "string",
              "name": "meetPersonemail",
              "type": "string"
            },
            {
              "internalType": "string",
              "name": "date",
              "type": "string"
            }
          ],
          "internalType": "struct VisitorAuth.Visitor[]",
          "name": "",
          "type": "tuple[]"
        }
      ],
      "stateMutability": "view",
      "type": "function",
      "constant": true
    }
  ],
  "bytecode": "0x6080604052600060015534801561001557600080fd5b50611fa8806100256000396000f3fe608060405234801561001057600080fd5b50600436106100575760003560e01c806342b71a361461005c578063693ba6c914610094578063bf6e60bb146100b0578063e653ee7c146100ce578063f8138e95146100ec575b600080fd5b6100766004803603810190610071919061138b565b61011c565b60405161008b99989796959493929190611448565b60405180910390f35b6100ae60048036038101906100a99190611649565b610632565b005b6100b86107af565b6040516100c5919061181e565b60405180910390f35b6100d66107b5565b6040516100e39190611a42565b60405180910390f35b6101066004803603810190610101919061138b565b610da6565b6040516101139190611b61565b60405180910390f35b600060205280600052604060002060009150905080600001805461013f90611bb2565b80601f016020809104026020016040519081016040528092919081815260200182805461016b90611bb2565b80156101b85780601f1061018d576101008083540402835291602001916101b8565b820191906000526020600020905b81548152906001019060200180831161019b57829003601f168201915b5050505050908060010180546101cd90611bb2565b80601f01602080910402602001604051908101604052809291908181526020018280546101f990611bb2565b80156102465780601f1061021b57610100808354040283529160200191610246565b820191906000526020600020905b81548152906001019060200180831161022957829003601f168201915b50505050509080600201805461025b90611bb2565b80601f016020809104026020016040519081016040528092919081815260200182805461028790611bb2565b80156102d45780601f106102a9576101008083540402835291602001916102d4565b820191906000526020600020905b8154815290600101906020018083116102b757829003601f168201915b5050505050908060030180546102e990611bb2565b80601f016020809104026020016040519081016040528092919081815260200182805461031590611bb2565b80156103625780601f1061033757610100808354040283529160200191610362565b820191906000526020600020905b81548152906001019060200180831161034557829003601f168201915b50505050509080600401805461037790611bb2565b80601f01602080910402602001604051908101604052809291908181526020018280546103a390611bb2565b80156103f05780601f106103c5576101008083540402835291602001916103f0565b820191906000526020600020905b8154815290600101906020018083116103d357829003601f168201915b50505050509080600501805461040590611bb2565b80601f016020809104026020016040519081016040528092919081815260200182805461043190611bb2565b801561047e5780601f106104535761010080835404028352916020019161047e565b820191906000526020600020905b81548152906001019060200180831161046157829003601f168201915b50505050509080600601805461049390611bb2565b80601f01602080910402602001604051908101604052809291908181526020018280546104bf90611bb2565b801561050c5780601f106104e15761010080835404028352916020019161050c565b820191906000526020600020905b8154815290600101906020018083116104ef57829003601f168201915b50505050509080600701805461052190611bb2565b80601f016020809104026020016040519081016040528092919081815260200182805461054d90611bb2565b801561059a5780601f1061056f5761010080835404028352916020019161059a565b820191906000526020600020905b81548152906001019060200180831161057d57829003601f168201915b5050505050908060080180546105af90611bb2565b80601f01602080910402602001604051908101604052809291908181526020018280546105db90611bb2565b80156106285780601f106105fd57610100808354040283529160200191610628565b820191906000526020600020905b81548152906001019060200180831161060b57829003601f168201915b5050505050905089565b6001600081548092919061064590611c12565b91905055506040518061012001604052808a815260200189815260200188815260200187815260200186815260200185815260200184815260200183815260200182815250600080600154815260200190815260200160002060008201518160000190816106b39190611e06565b5060208201518160010190816106c99190611e06565b5060408201518160020190816106df9190611e06565b5060608201518160030190816106f59190611e06565b50608082015181600401908161070b9190611e06565b5060a08201518160050190816107219190611e06565b5060c08201518160060190816107379190611e06565b5060e082015181600701908161074d9190611e06565b506101008201518160080190816107649190611e06565b509050506001547f6a6f861268eac9dddb8532664a674566e22a18d5906d199477b7d75f631aa3898a8360405161079c929190611ed8565b60405180910390a2505050505050505050565b60015481565b6060600060015467ffffffffffffffff8111156107d5576107d461151e565b5b60405190808252806020026020018201604052801561080e57816020015b6107fb6112f5565b8152602001906001900390816107f35790505b5090506000600190505b6001548111610d9e576000808281526020019081526020016000206040518061012001604052908160008201805461084f90611bb2565b80601f016020809104026020016040519081016040528092919081815260200182805461087b90611bb2565b80156108c85780601f1061089d576101008083540402835291602001916108c8565b820191906000526020600020905b8154815290600101906020018083116108ab57829003601f168201915b505050505081526020016001820180546108e190611bb2565b80601f016020809104026020016040519081016040528092919081815260200182805461090d90611bb2565b801561095a5780601f1061092f5761010080835404028352916020019161095a565b820191906000526020600020905b81548152906001019060200180831161093d57829003601f168201915b5050505050815260200160028201805461097390611bb2565b80601f016020809104026020016040519081016040528092919081815260200182805461099f90611bb2565b80156109ec5780601f106109c1576101008083540402835291602001916109ec565b820191906000526020600020905b8154815290600101906020018083116109cf57829003601f168201915b50505050508152602001600382018054610a0590611bb2565b80601f0160208091040260200160405190810160405280929190818152602001828054610a3190611bb2565b8015610a7e5780601f10610a5357610100808354040283529160200191610a7e565b820191906000526020600020905b815481529060010190602001808311610a6157829003601f168201915b50505050508152602001600482018054610a9790611bb2565b80601f0160208091040260200160405190810160405280929190818152602001828054610ac390611bb2565b8015610b105780601f10610ae557610100808354040283529160200191610b10565b820191906000526020600020905b815481529060010190602001808311610af357829003601f168201915b50505050508152602001600582018054610b2990611bb2565b80601f0160208091040260200160405190810160405280929190818152602001828054610b5590611bb2565b8015610ba25780601f10610b7757610100808354040283529160200191610ba2565b820191906000526020600020905b815481529060010190602001808311610b8557829003601f168201915b50505050508152602001600682018054610bbb90611bb2565b80601f0160208091040260200160405190810160405280929190818152602001828054610be790611bb2565b8015610c345780601f10610c0957610100808354040283529160200191610c34565b820191906000526020600020905b815481529060010190602001808311610c1757829003601f168201915b50505050508152602001600782018054610c4d90611bb2565b80601f0160208091040260200160405190810160405280929190818152602001828054610c7990611bb2565b8015610cc65780601f10610c9b57610100808354040283529160200191610cc6565b820191906000526020600020905b815481529060010190602001808311610ca957829003601f168201915b50505050508152602001600882018054610cdf90611bb2565b80601f0160208091040260200160405190810160405280929190818152602001828054610d0b90611bb2565b8015610d585780601f10610d2d57610100808354040283529160200191610d58565b820191906000526020600020905b815481529060010190602001808311610d3b57829003601f168201915b50505050508152505082600183610d6f9190611f0f565b81518110610d8057610d7f611f43565b5b60200260200101819052508080610d9690611c12565b915050610818565b508091505090565b610dae6112f5565b60008083815260200190815260200160002060405180610120016040529081600082018054610ddc90611bb2565b80601f0160208091040260200160405190810160405280929190818152602001828054610e0890611bb2565b8015610e555780601f10610e2a57610100808354040283529160200191610e55565b820191906000526020600020905b815481529060010190602001808311610e3857829003601f168201915b50505050508152602001600182018054610e6e90611bb2565b80601f0160208091040260200160405190810160405280929190818152602001828054610e9a90611bb2565b8015610ee75780601f10610ebc57610100808354040283529160200191610ee7565b820191906000526020600020905b815481529060010190602001808311610eca57829003601f168201915b50505050508152602001600282018054610f0090611bb2565b80601f0160208091040260200160405190810160405280929190818152602001828054610f2c90611bb2565b8015610f795780601f10610f4e57610100808354040283529160200191610f79565b820191906000526020600020905b815481529060010190602001808311610f5c57829003601f168201915b50505050508152602001600382018054610f9290611bb2565b80601f0160208091040260200160405190810160405280929190818152602001828054610fbe90611bb2565b801561100b5780601f10610fe05761010080835404028352916020019161100b565b820191906000526020600020905b815481529060010190602001808311610fee57829003601f168201915b5050505050815260200160048201805461102490611bb2565b80601f016020809104026020016040519081016040528092919081815260200182805461105090611bb2565b801561109d5780601f106110725761010080835404028352916020019161109d565b820191906000526020600020905b81548152906001019060200180831161108057829003601f168201915b505050505081526020016005820180546110b690611bb2565b80601f01602080910402602001604051908101604052809291908181526020018280546110e290611bb2565b801561112f5780601f106111045761010080835404028352916020019161112f565b820191906000526020600020905b81548152906001019060200180831161111257829003601f168201915b5050505050815260200160068201805461114890611bb2565b80601f016020809104026020016040519081016040528092919081815260200182805461117490611bb2565b80156111c15780601f10611196576101008083540402835291602001916111c1565b820191906000526020600020905b8154815290600101906020018083116111a457829003601f168201915b505050505081526020016007820180546111da90611bb2565b80601f016020809104026020016040519081016040528092919081815260200182805461120690611bb2565b80156112535780601f1061122857610100808354040283529160200191611253565b820191906000526020600020905b81548152906001019060200180831161123657829003601f168201915b5050505050815260200160088201805461126c90611bb2565b80601f016020809104026020016040519081016040528092919081815260200182805461129890611bb2565b80156112e55780601f106112ba576101008083540402835291602001916112e5565b820191906000526020600020905b8154815290600101906020018083116112c857829003601f168201915b5050505050815250509050919050565b6040518061012001604052806060815260200160608152602001606081526020016060815260200160608152602001606081526020016060815260200160608152602001606081525090565b6000604051905090565b600080fd5b600080fd5b6000819050919050565b61136881611355565b811461137357600080fd5b50565b6000813590506113858161135f565b92915050565b6000602082840312156113a1576113a061134b565b5b60006113af84828501611376565b91505092915050565b600081519050919050565b600082825260208201905092915050565b60005b838110156113f25780820151818401526020810190506113d7565b60008484015250505050565b6000601f19601f8301169050919050565b600061141a826113b8565b61142481856113c3565b93506114348185602086016113d4565b61143d816113fe565b840191505092915050565b6000610120820190508181036000830152611463818c61140f565b90508181036020830152611477818b61140f565b9050818103604083015261148b818a61140f565b9050818103606083015261149f818961140f565b905081810360808301526114b3818861140f565b905081810360a08301526114c7818761140f565b905081810360c08301526114db818661140f565b905081810360e08301526114ef818561140f565b9050818103610100830152611504818461140f565b90509a9950505050505050505050565b600080fd5b600080fd5b7f4e487b7100000000000000000000000000000000000000000000000000000000600052604160045260246000fd5b611556826113fe565b810181811067ffffffffffffffff821117156115755761157461151e565b5b80604052505050565b6000611588611341565b9050611594828261154d565b919050565b600067ffffffffffffffff8211156115b4576115b361151e565b5b6115bd826113fe565b9050602081019050919050565b82818337600083830152505050565b60006115ec6115e784611599565b61157e565b90508281526020810184848401111561160857611607611519565b5b6116138482856115ca565b509392505050565b600082601f8301126116305761162f611514565b5b81356116408482602086016115d9565b91505092915050565b60008060008060008060008060006101208a8c03121561166c5761166b61134b565b5b60008a013567ffffffffffffffff81111561168a57611689611350565b5b6116968c828d0161161b565b99505060208a013567ffffffffffffffff8111156116b7576116b6611350565b5b6116c38c828d0161161b565b98505060408a013567ffffffffffffffff8111156116e4576116e3611350565b5b6116f08c828d0161161b565b97505060608a013567ffffffffffffffff81111561171157611710611350565b5b61171d8c828d0161161b565b96505060808a013567ffffffffffffffff81111561173e5761173d611350565b5b61174a8c828d0161161b565b95505060a08a013567ffffffffffffffff81111561176b5761176a611350565b5b6117778c828d0161161b565b94505060c08a013567ffffffffffffffff81111561179857611797611350565b5b6117a48c828d0161161b565b93505060e08a013567ffffffffffffffff8111156117c5576117c4611350565b5b6117d18c828d0161161b565b9250506101008a013567ffffffffffffffff8111156117f3576117f2611350565b5b6117ff8c828d0161161b565b9150509295985092959850929598565b61181881611355565b82525050565b6000602082019050611833600083018461180f565b92915050565b600081519050919050565b600082825260208201905092915050565b6000819050602082019050919050565b600082825260208201905092915050565b6000611881826113b8565b61188b8185611865565b935061189b8185602086016113d4565b6118a4816113fe565b840191505092915050565b60006101208301600083015184820360008601526118cd8282611876565b915050602083015184820360208601526118e78282611876565b915050604083015184820360408601526119018282611876565b9150506060830151848203606086015261191b8282611876565b915050608083015184820360808601526119358282611876565b91505060a083015184820360a086015261194f8282611876565b91505060c083015184820360c08601526119698282611876565b91505060e083015184820360e08601526119838282611876565b91505061010083015184820361010086015261199f8282611876565b9150508091505092915050565b60006119b883836118af565b905092915050565b6000602082019050919050565b60006119d882611839565b6119e28185611844565b9350836020820285016119f485611855565b8060005b85811015611a305784840389528151611a1185826119ac565b9450611a1c836119c0565b925060208a019950506001810190506119f8565b50829750879550505050505092915050565b60006020820190508181036000830152611a5c81846119cd565b905092915050565b6000610120830160008301518482036000860152611a828282611876565b91505060208301518482036020860152611a9c8282611876565b91505060408301518482036040860152611ab68282611876565b91505060608301518482036060860152611ad08282611876565b91505060808301518482036080860152611aea8282611876565b91505060a083015184820360a0860152611b048282611876565b91505060c083015184820360c0860152611b1e8282611876565b91505060e083015184820360e0860152611b388282611876565b915050610100830151848203610100860152611b548282611876565b9150508091505092915050565b60006020820190508181036000830152611b7b8184611a64565b905092915050565b7f4e487b7100000000000000000000000000000000000000000000000000000000600052602260045260246000fd5b60006002820490506001821680611bca57607f821691505b602082108103611bdd57611bdc611b83565b5b50919050565b7f4e487b7100000000000000000000000000000000000000000000000000000000600052601160045260246000fd5b6000611c1d82611355565b91507fffffffffffffffffffffffffffffffffffffffffffffffffffffffffffffffff8203611c4f57611c4e611be3565b5b600182019050919050565b60008190508160005260206000209050919050565b60006020601f8301049050919050565b600082821b905092915050565b600060088302611cbc7fffffffffffffffffffffffffffffffffffffffffffffffffffffffffffffffff82611c7f565b611cc68683611c7f565b95508019841693508086168417925050509392505050565b6000819050919050565b6000611d03611cfe611cf984611355565b611cde565b611355565b9050919050565b6000819050919050565b611d1d83611ce8565b611d31611d2982611d0a565b848454611c8c565b825550505050565b600090565b611d46611d39565b611d51818484611d14565b505050565b5b81811015611d7557611d6a600082611d3e565b600181019050611d57565b5050565b601f821115611dba57611d8b81611c5a565b611d9484611c6f565b81016020851015611da3578190505b611db7611daf85611c6f565b830182611d56565b50505b505050565b600082821c905092915050565b6000611ddd60001984600802611dbf565b1980831691505092915050565b6000611df68383611dcc565b9150826002028217905092915050565b611e0f826113b8565b67ffffffffffffffff811115611e2857611e2761151e565b5b611e328254611bb2565b611e3d828285611d79565b600060209050601f831160018114611e705760008415611e5e578287015190505b611e688582611dea565b865550611ed0565b601f198416611e7e86611c5a565b60005b82811015611ea657848901518255600182019150602085019450602081019050611e81565b86831015611ec35784890151611ebf601f891682611dcc565b8355505b6001600288020188555050505b505050505050565b60006040820190508181036000830152611ef2818561140f565b90508181036020830152611f06818461140f565b90509392505050565b6000611f1a82611355565b9150611f2583611355565b9250828203905081811115611f3d57611f3c611be3565b5b92915050565b7f4e487b7100000000000000000000000000000000000000000000000000000000600052603260045260246000fdfea264697066735822122042f05c94c3f0b46083949b12d45263e6fb9d013f4dc39e2ad09d9c3750b748d664736f6c63430008130033",
  "immutableReferences": {},
  "source": "// SPDX-License-Identifier: MIT\npragma solidity ^0.8.19;\n\ncontract VisitorAuth {\n    struct Visitor {\n        string name;\n        string email;\n        string add;\n        string phone;\n        string purpose;\n        string types;\n        string toMeet;\n        string meetPersonemail;\n        string date; // Date in \"DD-MM-YYYY\" format\n    }\n\n    mapping(uint256 => Visitor) public visitors;\n    uint256 public lastVisitorId = 0;\n\n    event VisitorRegistered(\n        uint256 indexed visitorId,\n        string name,\n        string date // Changed to string\n    );\n\n    // Function to register a visitor\n    function registerVisitor(\n        string memory _name,\n        string memory _email,\n        string memory _address,\n        string memory _phone,\n        string memory _purpose,\n        string memory _types,\n        string memory _toMeet,\n        string memory _meetPersonemail,\n        string memory _date // Date in \"DD-MM-YYYY\" format\n    ) public {\n        lastVisitorId++;\n        visitors[lastVisitorId] = Visitor({\n            name: _name,\n            email: _email,\n            add: _address,\n            phone: _phone,\n            purpose: _purpose,\n            types: _types,\n            toMeet: _toMeet,\n            meetPersonemail: _meetPersonemail,\n            date: _date // Store the date as a string\n        });\n        // Emit an event for the registered visitor\n        emit VisitorRegistered(lastVisitorId, _name, _date);\n    }\n\n    // Function to retrieve a visitor by ID\n    function getVisitor(\n        uint256 _visitorId\n    ) public view returns (Visitor memory) {\n        return visitors[_visitorId];\n    }\n\n    // Function to retrieve all visitors\n    function getAllVisitors() public view returns (Visitor[] memory) {\n        Visitor[] memory allVisitors = new Visitor[](lastVisitorId);\n        for (uint256 i = 1; i <= lastVisitorId; i++) {\n            allVisitors[i - 1] = visitors[i];\n        }\n        return allVisitors;\n    }\n}\n",
  "sourcePath": "/home/dev/blockchain/visitor-web/frontend/contracts/VisitorAuth.sol",
  "compiler": {
    "name": "solc",
    "version": "0.8.19+commit.7dd6d404.Emscripten.clang"
  },
  "schemaVersion": "3.4.16",
  "updatedAt": "2024-05-01T12:28:59.790Z",
  "networkType": "ethereum",
  "devdoc": {
    "kind": "dev",
    "methods": {},
    "version": 1
  },
  "userdoc": {
    "kind": "user",
    "methods": {},
    "version": 1
  }
}