{
  "contractName": "VisitorAuth",
  "abi": [
    {
      "anonymous": false,
      "inputs": [
        {
          "indexed": true,
          "internalType": "address",
          "name": "visitorAddress",
          "type": "address"
        },
        {
          "indexed": false,
          "internalType": "string",
          "name": "name",
          "type": "string"
        },
        {
          "indexed": false,
          "internalType": "uint256",
          "name": "date",
          "type": "uint256"
        }
      ],
      "name": "VisitorRegistered",
      "type": "event"
    },
    {
      "inputs": [
        {
          "internalType": "address",
          "name": "",
          "type": "address"
        }
      ],
      "name": "visitors",
      "outputs": [
        {
          "internalType": "string",
          "name": "name",
          "type": "string"
        },
        {
          "internalType": "string",
          "name": "email",
          "type": "string"
        },
        {
          "internalType": "string",
          "name": "add",
          "type": "string"
        },
        {
          "internalType": "string",
          "name": "phone",
          "type": "string"
        },
        {
          "internalType": "string",
          "name": "purpose",
          "type": "string"
        },
        {
          "internalType": "string",
          "name": "toMeet",
          "type": "string"
        },
        {
          "internalType": "uint256",
          "name": "date",
          "type": "uint256"
        }
      ],
      "stateMutability": "view",
      "type": "function"
    },
    {
      "inputs": [
        {
          "internalType": "string",
          "name": "_name",
          "type": "string"
        },
        {
          "internalType": "string",
          "name": "_email",
          "type": "string"
        },
        {
          "internalType": "string",
          "name": "_address",
          "type": "string"
        },
        {
          "internalType": "string",
          "name": "_phone",
          "type": "string"
        },
        {
          "internalType": "string",
          "name": "_purpose",
          "type": "string"
        },
        {
          "internalType": "string",
          "name": "_toMeet",
          "type": "string"
        },
        {
          "internalType": "uint256",
          "name": "_date",
          "type": "uint256"
        }
      ],
      "name": "registerVisitor",
      "outputs": [],
      "stateMutability": "nonpayable",
      "type": "function"
    },
    {
      "inputs": [
        {
          "internalType": "address",
          "name": "_visitorAddress",
          "type": "address"
        }
      ],
      "name": "getVisitor",
      "outputs": [
        {
          "components": [
            {
              "internalType": "string",
              "name": "name",
              "type": "string"
            },
            {
              "internalType": "string",
              "name": "email",
              "type": "string"
            },
            {
              "internalType": "string",
              "name": "add",
              "type": "string"
            },
            {
              "internalType": "string",
              "name": "phone",
              "type": "string"
            },
            {
              "internalType": "string",
              "name": "purpose",
              "type": "string"
            },
            {
              "internalType": "string",
              "name": "toMeet",
              "type": "string"
            },
            {
              "internalType": "uint256",
              "name": "date",
              "type": "uint256"
            }
          ],
          "internalType": "struct VisitorAuth.Visitor",
          "name": "",
          "type": "tuple"
        }
      ],
      "stateMutability": "view",
      "type": "function"
    }
  ],
  "bytecode": "0x608060405234801561001057600080fd5b506112aa806100206000396000f3fe608060405234801561001057600080fd5b50600436106100415760003560e01c80630d0ea0c614610046578063bd3d5c031461007c578063c472ca9414610098575b600080fd5b610060600480360381019061005b9190610a12565b6100c8565b6040516100739796959493929190610ae8565b60405180910390f35b61009660048036038101906100919190610ce2565b61043a565b005b6100b260048036038101906100ad9190610a12565b610595565b6040516100bf9190610f44565b60405180910390f35b60006020528060005260406000206000915090508060000180546100eb90610f95565b80601f016020809104026020016040519081016040528092919081815260200182805461011790610f95565b80156101645780601f1061013957610100808354040283529160200191610164565b820191906000526020600020905b81548152906001019060200180831161014757829003601f168201915b50505050509080600101805461017990610f95565b80601f01602080910402602001604051908101604052809291908181526020018280546101a590610f95565b80156101f25780601f106101c7576101008083540402835291602001916101f2565b820191906000526020600020905b8154815290600101906020018083116101d557829003601f168201915b50505050509080600201805461020790610f95565b80601f016020809104026020016040519081016040528092919081815260200182805461023390610f95565b80156102805780601f1061025557610100808354040283529160200191610280565b820191906000526020600020905b81548152906001019060200180831161026357829003601f168201915b50505050509080600301805461029590610f95565b80601f01602080910402602001604051908101604052809291908181526020018280546102c190610f95565b801561030e5780601f106102e35761010080835404028352916020019161030e565b820191906000526020600020905b8154815290600101906020018083116102f157829003601f168201915b50505050509080600401805461032390610f95565b80601f016020809104026020016040519081016040528092919081815260200182805461034f90610f95565b801561039c5780601f106103715761010080835404028352916020019161039c565b820191906000526020600020905b81548152906001019060200180831161037f57829003601f168201915b5050505050908060050180546103b190610f95565b80601f01602080910402602001604051908101604052809291908181526020018280546103dd90610f95565b801561042a5780601f106103ff5761010080835404028352916020019161042a565b820191906000526020600020905b81548152906001019060200180831161040d57829003601f168201915b5050505050908060060154905087565b6040518060e00160405280888152602001878152602001868152602001858152602001848152602001838152602001828152506000803373ffffffffffffffffffffffffffffffffffffffff1673ffffffffffffffffffffffffffffffffffffffff16815260200190815260200160002060008201518160000190816104c09190611172565b5060208201518160010190816104d69190611172565b5060408201518160020190816104ec9190611172565b5060608201518160030190816105029190611172565b5060808201518160040190816105189190611172565b5060a082015181600501908161052e9190611172565b5060c082015181600601559050503373ffffffffffffffffffffffffffffffffffffffff167f63dc9a48dab2c47e05241e5b11feac0b8f82849aa283e851df4bcb6a1f64c4f28883604051610584929190611244565b60405180910390a250505050505050565b61059d610963565b6000808373ffffffffffffffffffffffffffffffffffffffff1673ffffffffffffffffffffffffffffffffffffffff1681526020019081526020016000206040518060e00160405290816000820180546105f690610f95565b80601f016020809104026020016040519081016040528092919081815260200182805461062290610f95565b801561066f5780601f106106445761010080835404028352916020019161066f565b820191906000526020600020905b81548152906001019060200180831161065257829003601f168201915b5050505050815260200160018201805461068890610f95565b80601f01602080910402602001604051908101604052809291908181526020018280546106b490610f95565b80156107015780601f106106d657610100808354040283529160200191610701565b820191906000526020600020905b8154815290600101906020018083116106e457829003601f168201915b5050505050815260200160028201805461071a90610f95565b80601f016020809104026020016040519081016040528092919081815260200182805461074690610f95565b80156107935780601f1061076857610100808354040283529160200191610793565b820191906000526020600020905b81548152906001019060200180831161077657829003601f168201915b505050505081526020016003820180546107ac90610f95565b80601f01602080910402602001604051908101604052809291908181526020018280546107d890610f95565b80156108255780601f106107fa57610100808354040283529160200191610825565b820191906000526020600020905b81548152906001019060200180831161080857829003601f168201915b5050505050815260200160048201805461083e90610f95565b80601f016020809104026020016040519081016040528092919081815260200182805461086a90610f95565b80156108b75780601f1061088c576101008083540402835291602001916108b7565b820191906000526020600020905b81548152906001019060200180831161089a57829003601f168201915b505050505081526020016005820180546108d090610f95565b80601f01602080910402602001604051908101604052809291908181526020018280546108fc90610f95565b80156109495780601f1061091e57610100808354040283529160200191610949565b820191906000526020600020905b81548152906001019060200180831161092c57829003601f168201915b505050505081526020016006820154815250509050919050565b6040518060e00160405280606081526020016060815260200160608152602001606081526020016060815260200160608152602001600081525090565b6000604051905090565b600080fd5b600080fd5b600073ffffffffffffffffffffffffffffffffffffffff82169050919050565b60006109df826109b4565b9050919050565b6109ef816109d4565b81146109fa57600080fd5b50565b600081359050610a0c816109e6565b92915050565b600060208284031215610a2857610a276109aa565b5b6000610a36848285016109fd565b91505092915050565b600081519050919050565b600082825260208201905092915050565b60005b83811015610a79578082015181840152602081019050610a5e565b60008484015250505050565b6000601f19601f8301169050919050565b6000610aa182610a3f565b610aab8185610a4a565b9350610abb818560208601610a5b565b610ac481610a85565b840191505092915050565b6000819050919050565b610ae281610acf565b82525050565b600060e0820190508181036000830152610b02818a610a96565b90508181036020830152610b168189610a96565b90508181036040830152610b2a8188610a96565b90508181036060830152610b3e8187610a96565b90508181036080830152610b528186610a96565b905081810360a0830152610b668185610a96565b9050610b7560c0830184610ad9565b98975050505050505050565b600080fd5b600080fd5b7f4e487b7100000000000000000000000000000000000000000000000000000000600052604160045260246000fd5b610bc382610a85565b810181811067ffffffffffffffff82111715610be257610be1610b8b565b5b80604052505050565b6000610bf56109a0565b9050610c018282610bba565b919050565b600067ffffffffffffffff821115610c2157610c20610b8b565b5b610c2a82610a85565b9050602081019050919050565b82818337600083830152505050565b6000610c59610c5484610c06565b610beb565b905082815260208101848484011115610c7557610c74610b86565b5b610c80848285610c37565b509392505050565b600082601f830112610c9d57610c9c610b81565b5b8135610cad848260208601610c46565b91505092915050565b610cbf81610acf565b8114610cca57600080fd5b50565b600081359050610cdc81610cb6565b92915050565b600080600080600080600060e0888a031215610d0157610d006109aa565b5b600088013567ffffffffffffffff811115610d1f57610d1e6109af565b5b610d2b8a828b01610c88565b975050602088013567ffffffffffffffff811115610d4c57610d4b6109af565b5b610d588a828b01610c88565b965050604088013567ffffffffffffffff811115610d7957610d786109af565b5b610d858a828b01610c88565b955050606088013567ffffffffffffffff811115610da657610da56109af565b5b610db28a828b01610c88565b945050608088013567ffffffffffffffff811115610dd357610dd26109af565b5b610ddf8a828b01610c88565b93505060a088013567ffffffffffffffff811115610e0057610dff6109af565b5b610e0c8a828b01610c88565b92505060c0610e1d8a828b01610ccd565b91505092959891949750929550565b600082825260208201905092915050565b6000610e4882610a3f565b610e528185610e2c565b9350610e62818560208601610a5b565b610e6b81610a85565b840191505092915050565b610e7f81610acf565b82525050565b600060e0830160008301518482036000860152610ea28282610e3d565b91505060208301518482036020860152610ebc8282610e3d565b91505060408301518482036040860152610ed68282610e3d565b91505060608301518482036060860152610ef08282610e3d565b91505060808301518482036080860152610f0a8282610e3d565b91505060a083015184820360a0860152610f248282610e3d565b91505060c0830151610f3960c0860182610e76565b508091505092915050565b60006020820190508181036000830152610f5e8184610e85565b905092915050565b7f4e487b7100000000000000000000000000000000000000000000000000000000600052602260045260246000fd5b60006002820490506001821680610fad57607f821691505b602082108103610fc057610fbf610f66565b5b50919050565b60008190508160005260206000209050919050565b60006020601f8301049050919050565b600082821b905092915050565b6000600883026110287fffffffffffffffffffffffffffffffffffffffffffffffffffffffffffffffff82610feb565b6110328683610feb565b95508019841693508086168417925050509392505050565b6000819050919050565b600061106f61106a61106584610acf565b61104a565b610acf565b9050919050565b6000819050919050565b61108983611054565b61109d61109582611076565b848454610ff8565b825550505050565b600090565b6110b26110a5565b6110bd818484611080565b505050565b5b818110156110e1576110d66000826110aa565b6001810190506110c3565b5050565b601f821115611126576110f781610fc6565b61110084610fdb565b8101602085101561110f578190505b61112361111b85610fdb565b8301826110c2565b50505b505050565b600082821c905092915050565b60006111496000198460080261112b565b1980831691505092915050565b60006111628383611138565b9150826002028217905092915050565b61117b82610a3f565b67ffffffffffffffff81111561119457611193610b8b565b5b61119e8254610f95565b6111a98282856110e5565b600060209050601f8311600181146111dc57600084156111ca578287015190505b6111d48582611156565b86555061123c565b601f1984166111ea86610fc6565b60005b82811015611212578489015182556001820191506020850194506020810190506111ed565b8683101561122f578489015161122b601f891682611138565b8355505b6001600288020188555050505b505050505050565b6000604082019050818103600083015261125e8185610a96565b905061126d6020830184610ad9565b939250505056fea2646970667358221220b469e989f13a1a1144c6545b49e88ad6bbd321237c7c8d4fe572afdbffc38b3664736f6c63430008130033",
  "immutableReferences": {},
  "source": "// SPDX-License-Identifier: MIT\npragma solidity ^0.8.19;\n\ncontract VisitorAuth {\n    struct Visitor {\n        string name;\n        string email;\n        string add;\n        string phone;\n        string purpose;\n        string toMeet;\n        uint256 date;\n    }\n\n    mapping(address => Visitor) public visitors;\n\n    event VisitorRegistered(\n        address indexed visitorAddress,\n        string name,\n        uint256 date\n    );\n\n    function registerVisitor(\n        string memory _name,\n        string memory _email,\n        string memory _address,\n        string memory _phone,\n        string memory _purpose,\n        string memory _toMeet,\n        uint256 _date\n    ) public {\n        visitors[msg.sender] = Visitor({\n            name: _name,\n            email: _email,\n            add: _address,\n            phone: _phone,\n            purpose: _purpose,\n            toMeet: _toMeet,\n            date: _date\n        });\n\n        emit VisitorRegistered(msg.sender, _name, _date);\n    }\n\n    function getVisitor(\n        address _visitorAddress\n    ) public view returns (Visitor memory) {\n        return visitors[_visitorAddress];\n    }\n}\n",
  "sourcePath": "/home/dev/blockchain/visitor-web/contracts/VisitorAuth.sol",
  "compiler": {
    "name": "solc",
    "version": "0.8.19+commit.7dd6d404.Emscripten.clang"
  },
  "schemaVersion": "3.4.16",
  "updatedAt": "2024-04-15T09:59:25.832Z",
  "devdoc": {
    "kind": "dev",
    "methods": {},
    "version": 1
  },
  "userdoc": {
    "kind": "user",
    "methods": {},
    "version": 1
  }
}