{
  "contractName": "VisitorAuth",
  "abi": [
    {
      "anonymous": false,
      "inputs": [
        {
          "indexed": true,
          "internalType": "uint256",
          "name": "visitorId",
          "type": "uint256"
        },
        {
          "indexed": false,
          "internalType": "string",
          "name": "name",
          "type": "string"
        },
        {
          "indexed": false,
          "internalType": "uint256",
          "name": "date",
          "type": "uint256"
        }
      ],
      "name": "VisitorRegistered",
      "type": "event"
    },
    {
      "inputs": [],
      "name": "lastVisitorId",
      "outputs": [
        {
          "internalType": "uint256",
          "name": "",
          "type": "uint256"
        }
      ],
      "stateMutability": "view",
      "type": "function",
      "constant": true
    },
    {
      "inputs": [
        {
          "internalType": "uint256",
          "name": "",
          "type": "uint256"
        }
      ],
      "name": "visitors",
      "outputs": [
        {
          "internalType": "string",
          "name": "name",
          "type": "string"
        },
        {
          "internalType": "string",
          "name": "email",
          "type": "string"
        },
        {
          "internalType": "string",
          "name": "add",
          "type": "string"
        },
        {
          "internalType": "string",
          "name": "phone",
          "type": "string"
        },
        {
          "internalType": "string",
          "name": "purpose",
          "type": "string"
        },
        {
          "internalType": "string",
          "name": "types",
          "type": "string"
        },
        {
          "internalType": "string",
          "name": "toMeet",
          "type": "string"
        },
        {
          "internalType": "string",
          "name": "meetPersonemail",
          "type": "string"
        },
        {
          "internalType": "uint256",
          "name": "date",
          "type": "uint256"
        }
      ],
      "stateMutability": "view",
      "type": "function",
      "constant": true
    },
    {
      "inputs": [
        {
          "internalType": "string",
          "name": "_name",
          "type": "string"
        },
        {
          "internalType": "string",
          "name": "_email",
          "type": "string"
        },
        {
          "internalType": "string",
          "name": "_address",
          "type": "string"
        },
        {
          "internalType": "string",
          "name": "_phone",
          "type": "string"
        },
        {
          "internalType": "string",
          "name": "_purpose",
          "type": "string"
        },
        {
          "internalType": "string",
          "name": "_types",
          "type": "string"
        },
        {
          "internalType": "string",
          "name": "_toMeet",
          "type": "string"
        },
        {
          "internalType": "string",
          "name": "_meetPersonemail",
          "type": "string"
        },
        {
          "internalType": "uint256",
          "name": "_date",
          "type": "uint256"
        }
      ],
      "name": "registerVisitor",
      "outputs": [],
      "stateMutability": "payable",
      "type": "function",
      "payable": true
    },
    {
      "inputs": [
        {
          "internalType": "uint256",
          "name": "_visitorId",
          "type": "uint256"
        }
      ],
      "name": "getVisitor",
      "outputs": [
        {
          "components": [
            {
              "internalType": "string",
              "name": "name",
              "type": "string"
            },
            {
              "internalType": "string",
              "name": "email",
              "type": "string"
            },
            {
              "internalType": "string",
              "name": "add",
              "type": "string"
            },
            {
              "internalType": "string",
              "name": "phone",
              "type": "string"
            },
            {
              "internalType": "string",
              "name": "purpose",
              "type": "string"
            },
            {
              "internalType": "string",
              "name": "types",
              "type": "string"
            },
            {
              "internalType": "string",
              "name": "toMeet",
              "type": "string"
            },
            {
              "internalType": "string",
              "name": "meetPersonemail",
              "type": "string"
            },
            {
              "internalType": "uint256",
              "name": "date",
              "type": "uint256"
            }
          ],
          "internalType": "struct VisitorAuth.Visitor",
          "name": "",
          "type": "tuple"
        }
      ],
      "stateMutability": "view",
      "type": "function",
      "constant": true
    },
    {
      "inputs": [],
      "name": "getAllVisitors",
      "outputs": [
        {
          "components": [
            {
              "internalType": "string",
              "name": "name",
              "type": "string"
            },
            {
              "internalType": "string",
              "name": "email",
              "type": "string"
            },
            {
              "internalType": "string",
              "name": "add",
              "type": "string"
            },
            {
              "internalType": "string",
              "name": "phone",
              "type": "string"
            },
            {
              "internalType": "string",
              "name": "purpose",
              "type": "string"
            },
            {
              "internalType": "string",
              "name": "types",
              "type": "string"
            },
            {
              "internalType": "string",
              "name": "toMeet",
              "type": "string"
            },
            {
              "internalType": "string",
              "name": "meetPersonemail",
              "type": "string"
            },
            {
              "internalType": "uint256",
              "name": "date",
              "type": "uint256"
            }
          ],
          "internalType": "struct VisitorAuth.Visitor[]",
          "name": "",
          "type": "tuple[]"
        }
      ],
      "stateMutability": "view",
      "type": "function",
      "constant": true
    },
    {
      "inputs": [
        {
          "internalType": "uint256",
          "name": "_month",
          "type": "uint256"
        }
      ],
      "name": "getTotalVisitorsByMonth",
      "outputs": [
        {
          "internalType": "uint256",
          "name": "",
          "type": "uint256"
        }
      ],
      "stateMutability": "view",
      "type": "function",
      "constant": true
    },
    {
      "inputs": [
        {
          "internalType": "uint256",
          "name": "_week",
          "type": "uint256"
        }
      ],
      "name": "getTotalVisitorsByWeek",
      "outputs": [
        {
          "internalType": "uint256",
          "name": "",
          "type": "uint256"
        }
      ],
      "stateMutability": "view",
      "type": "function",
      "constant": true
    }
  ],
  "bytecode": "0x6080604052600060015534801561001557600080fd5b5061216a806100256000396000f3fe6080604052600436106100705760003560e01c8063af50a0e21161004e578063af50a0e214610113578063bf6e60bb14610150578063e653ee7c1461017b578063f8138e95146101a657610070565b806342b71a361461007557806372f13474146100ba5780639315fb4b146100f7575b600080fd5b34801561008157600080fd5b5061009c60048036038101906100979190611445565b6101e3565b6040516100b199989796959493929190611511565b60405180910390f35b3480156100c657600080fd5b506100e160048036038101906100dc9190611445565b610671565b6040516100ee91906115d6565b60405180910390f35b610111600480360381019061010c9190611726565b6106eb565b005b34801561011f57600080fd5b5061013a60048036038101906101359190611445565b61089f565b60405161014791906115d6565b60405180910390f35b34801561015c57600080fd5b50610165610919565b60405161017291906115d6565b60405180910390f35b34801561018757600080fd5b5061019061091f565b60405161019d9190611ae1565b60405180910390f35b3480156101b257600080fd5b506101cd60048036038101906101c89190611445565b610e88565b6040516101da9190611bf9565b60405180910390f35b600060205280600052604060002060009150905080600001805461020690611c4a565b80601f016020809104026020016040519081016040528092919081815260200182805461023290611c4a565b801561027f5780601f106102545761010080835404028352916020019161027f565b820191906000526020600020905b81548152906001019060200180831161026257829003601f168201915b50505050509080600101805461029490611c4a565b80601f01602080910402602001604051908101604052809291908181526020018280546102c090611c4a565b801561030d5780601f106102e25761010080835404028352916020019161030d565b820191906000526020600020905b8154815290600101906020018083116102f057829003601f168201915b50505050509080600201805461032290611c4a565b80601f016020809104026020016040519081016040528092919081815260200182805461034e90611c4a565b801561039b5780601f106103705761010080835404028352916020019161039b565b820191906000526020600020905b81548152906001019060200180831161037e57829003601f168201915b5050505050908060030180546103b090611c4a565b80601f01602080910402602001604051908101604052809291908181526020018280546103dc90611c4a565b80156104295780601f106103fe57610100808354040283529160200191610429565b820191906000526020600020905b81548152906001019060200180831161040c57829003601f168201915b50505050509080600401805461043e90611c4a565b80601f016020809104026020016040519081016040528092919081815260200182805461046a90611c4a565b80156104b75780601f1061048c576101008083540402835291602001916104b7565b820191906000526020600020905b81548152906001019060200180831161049a57829003601f168201915b5050505050908060050180546104cc90611c4a565b80601f01602080910402602001604051908101604052809291908181526020018280546104f890611c4a565b80156105455780601f1061051a57610100808354040283529160200191610545565b820191906000526020600020905b81548152906001019060200180831161052857829003601f168201915b50505050509080600601805461055a90611c4a565b80601f016020809104026020016040519081016040528092919081815260200182805461058690611c4a565b80156105d35780601f106105a8576101008083540402835291602001916105d3565b820191906000526020600020905b8154815290600101906020018083116105b657829003601f168201915b5050505050908060070180546105e890611c4a565b80601f016020809104026020016040519081016040528092919081815260200182805461061490611c4a565b80156106615780601f1061063657610100808354040283529160200191610661565b820191906000526020600020905b81548152906001019060200180831161064457829003601f168201915b5050505050908060080154905089565b60008060009050600061068261091f565b905060005b81518110156106e057846106b98383815181106106a7576106a6611c7b565b5b6020026020010151610100015161134f565b036106cd5782806106c990611cd9565b9350505b80806106d890611cd9565b915050610687565b508192505050919050565b6000341161072e576040517f08c379a000000000000000000000000000000000000000000000000000000000815260040161072590611d6d565b60405180910390fd5b6001600081548092919061074190611cd9565b91905055506040518061012001604052808a815260200189815260200188815260200187815260200186815260200185815260200184815260200183815260200182815250600080600154815260200190815260200160002060008201518160000190816107af9190611f39565b5060208201518160010190816107c59190611f39565b5060408201518160020190816107db9190611f39565b5060608201518160030190816107f19190611f39565b5060808201518160040190816108079190611f39565b5060a082015181600501908161081d9190611f39565b5060c08201518160060190816108339190611f39565b5060e08201518160070190816108499190611f39565b5061010082015181600801559050506001547fbd9034def32d12808952cf3604a22383c588debbc3db133d61fab9c6f37b6f758a8360405161088c92919061200b565b60405180910390a2505050505050505050565b6000806000905060006108b061091f565b905060005b815181101561090e57846108e78383815181106108d5576108d4611c7b565b5b6020026020010151610100015161137f565b036108fb5782806108f790611cd9565b9350505b808061090690611cd9565b9150506108b5565b508192505050919050565b60015481565b6060600060015467ffffffffffffffff81111561093f5761093e6115fb565b5b60405190808252806020026020018201604052801561097857816020015b6109656113af565b81526020019060019003908161095d5790505b5090506000600190505b6001548111610e8057600080828152602001908152602001600020604051806101200160405290816000820180546109b990611c4a565b80601f01602080910402602001604051908101604052809291908181526020018280546109e590611c4a565b8015610a325780601f10610a0757610100808354040283529160200191610a32565b820191906000526020600020905b815481529060010190602001808311610a1557829003601f168201915b50505050508152602001600182018054610a4b90611c4a565b80601f0160208091040260200160405190810160405280929190818152602001828054610a7790611c4a565b8015610ac45780601f10610a9957610100808354040283529160200191610ac4565b820191906000526020600020905b815481529060010190602001808311610aa757829003601f168201915b50505050508152602001600282018054610add90611c4a565b80601f0160208091040260200160405190810160405280929190818152602001828054610b0990611c4a565b8015610b565780601f10610b2b57610100808354040283529160200191610b56565b820191906000526020600020905b815481529060010190602001808311610b3957829003601f168201915b50505050508152602001600382018054610b6f90611c4a565b80601f0160208091040260200160405190810160405280929190818152602001828054610b9b90611c4a565b8015610be85780601f10610bbd57610100808354040283529160200191610be8565b820191906000526020600020905b815481529060010190602001808311610bcb57829003601f168201915b50505050508152602001600482018054610c0190611c4a565b80601f0160208091040260200160405190810160405280929190818152602001828054610c2d90611c4a565b8015610c7a5780601f10610c4f57610100808354040283529160200191610c7a565b820191906000526020600020905b815481529060010190602001808311610c5d57829003601f168201915b50505050508152602001600582018054610c9390611c4a565b80601f0160208091040260200160405190810160405280929190818152602001828054610cbf90611c4a565b8015610d0c5780601f10610ce157610100808354040283529160200191610d0c565b820191906000526020600020905b815481529060010190602001808311610cef57829003601f168201915b50505050508152602001600682018054610d2590611c4a565b80601f0160208091040260200160405190810160405280929190818152602001828054610d5190611c4a565b8015610d9e5780601f10610d7357610100808354040283529160200191610d9e565b820191906000526020600020905b815481529060010190602001808311610d8157829003601f168201915b50505050508152602001600782018054610db790611c4a565b80601f0160208091040260200160405190810160405280929190818152602001828054610de390611c4a565b8015610e305780601f10610e0557610100808354040283529160200191610e30565b820191906000526020600020905b815481529060010190602001808311610e1357829003601f168201915b5050505050815260200160088201548152505082600183610e51919061203b565b81518110610e6257610e61611c7b565b5b60200260200101819052508080610e7890611cd9565b915050610982565b508091505090565b610e906113af565b60008083815260200190815260200160002060405180610120016040529081600082018054610ebe90611c4a565b80601f0160208091040260200160405190810160405280929190818152602001828054610eea90611c4a565b8015610f375780601f10610f0c57610100808354040283529160200191610f37565b820191906000526020600020905b815481529060010190602001808311610f1a57829003601f168201915b50505050508152602001600182018054610f5090611c4a565b80601f0160208091040260200160405190810160405280929190818152602001828054610f7c90611c4a565b8015610fc95780601f10610f9e57610100808354040283529160200191610fc9565b820191906000526020600020905b815481529060010190602001808311610fac57829003601f168201915b50505050508152602001600282018054610fe290611c4a565b80601f016020809104026020016040519081016040528092919081815260200182805461100e90611c4a565b801561105b5780601f106110305761010080835404028352916020019161105b565b820191906000526020600020905b81548152906001019060200180831161103e57829003601f168201915b5050505050815260200160038201805461107490611c4a565b80601f01602080910402602001604051908101604052809291908181526020018280546110a090611c4a565b80156110ed5780601f106110c2576101008083540402835291602001916110ed565b820191906000526020600020905b8154815290600101906020018083116110d057829003601f168201915b5050505050815260200160048201805461110690611c4a565b80601f016020809104026020016040519081016040528092919081815260200182805461113290611c4a565b801561117f5780601f106111545761010080835404028352916020019161117f565b820191906000526020600020905b81548152906001019060200180831161116257829003601f168201915b5050505050815260200160058201805461119890611c4a565b80601f01602080910402602001604051908101604052809291908181526020018280546111c490611c4a565b80156112115780601f106111e657610100808354040283529160200191611211565b820191906000526020600020905b8154815290600101906020018083116111f457829003601f168201915b5050505050815260200160068201805461122a90611c4a565b80601f016020809104026020016040519081016040528092919081815260200182805461125690611c4a565b80156112a35780601f10611278576101008083540402835291602001916112a3565b820191906000526020600020905b81548152906001019060200180831161128657829003601f168201915b505050505081526020016007820180546112bc90611c4a565b80601f01602080910402602001604051908101604052809291908181526020018280546112e890611c4a565b80156113355780601f1061130a57610100808354040283529160200191611335565b820191906000526020600020905b81548152906001019060200180831161131857829003601f168201915b505050505081526020016008820154815250509050919050565b60006001603462093a8084611364919061209e565b61136e91906120cf565b6113789190612100565b9050919050565b60006001600c6228206f84611394919061209e565b61139e91906120cf565b6113a89190612100565b9050919050565b6040518061012001604052806060815260200160608152602001606081526020016060815260200160608152602001606081526020016060815260200160608152602001600081525090565b6000604051905090565b600080fd5b600080fd5b6000819050919050565b6114228161140f565b811461142d57600080fd5b50565b60008135905061143f81611419565b92915050565b60006020828403121561145b5761145a611405565b5b600061146984828501611430565b91505092915050565b600081519050919050565b600082825260208201905092915050565b60005b838110156114ac578082015181840152602081019050611491565b60008484015250505050565b6000601f19601f8301169050919050565b60006114d482611472565b6114de818561147d565b93506114ee81856020860161148e565b6114f7816114b8565b840191505092915050565b61150b8161140f565b82525050565b600061012082019050818103600083015261152c818c6114c9565b90508181036020830152611540818b6114c9565b90508181036040830152611554818a6114c9565b9050818103606083015261156881896114c9565b9050818103608083015261157c81886114c9565b905081810360a083015261159081876114c9565b905081810360c08301526115a481866114c9565b905081810360e08301526115b881856114c9565b90506115c8610100830184611502565b9a9950505050505050505050565b60006020820190506115eb6000830184611502565b92915050565b600080fd5b600080fd5b7f4e487b7100000000000000000000000000000000000000000000000000000000600052604160045260246000fd5b611633826114b8565b810181811067ffffffffffffffff82111715611652576116516115fb565b5b80604052505050565b60006116656113fb565b9050611671828261162a565b919050565b600067ffffffffffffffff821115611691576116906115fb565b5b61169a826114b8565b9050602081019050919050565b82818337600083830152505050565b60006116c96116c484611676565b61165b565b9050828152602081018484840111156116e5576116e46115f6565b5b6116f08482856116a7565b509392505050565b600082601f83011261170d5761170c6115f1565b5b813561171d8482602086016116b6565b91505092915050565b60008060008060008060008060006101208a8c03121561174957611748611405565b5b60008a013567ffffffffffffffff8111156117675761176661140a565b5b6117738c828d016116f8565b99505060208a013567ffffffffffffffff8111156117945761179361140a565b5b6117a08c828d016116f8565b98505060408a013567ffffffffffffffff8111156117c1576117c061140a565b5b6117cd8c828d016116f8565b97505060608a013567ffffffffffffffff8111156117ee576117ed61140a565b5b6117fa8c828d016116f8565b96505060808a013567ffffffffffffffff81111561181b5761181a61140a565b5b6118278c828d016116f8565b95505060a08a013567ffffffffffffffff8111156118485761184761140a565b5b6118548c828d016116f8565b94505060c08a013567ffffffffffffffff8111156118755761187461140a565b5b6118818c828d016116f8565b93505060e08a013567ffffffffffffffff8111156118a2576118a161140a565b5b6118ae8c828d016116f8565b9250506101006118c08c828d01611430565b9150509295985092959850929598565b600081519050919050565b600082825260208201905092915050565b6000819050602082019050919050565b600082825260208201905092915050565b600061191882611472565b61192281856118fc565b935061193281856020860161148e565b61193b816114b8565b840191505092915050565b61194f8161140f565b82525050565b6000610120830160008301518482036000860152611973828261190d565b9150506020830151848203602086015261198d828261190d565b915050604083015184820360408601526119a7828261190d565b915050606083015184820360608601526119c1828261190d565b915050608083015184820360808601526119db828261190d565b91505060a083015184820360a08601526119f5828261190d565b91505060c083015184820360c0860152611a0f828261190d565b91505060e083015184820360e0860152611a29828261190d565b915050610100830151611a40610100860182611946565b508091505092915050565b6000611a578383611955565b905092915050565b6000602082019050919050565b6000611a77826118d0565b611a8181856118db565b935083602082028501611a93856118ec565b8060005b85811015611acf5784840389528151611ab08582611a4b565b9450611abb83611a5f565b925060208a01995050600181019050611a97565b50829750879550505050505092915050565b60006020820190508181036000830152611afb8184611a6c565b905092915050565b6000610120830160008301518482036000860152611b21828261190d565b91505060208301518482036020860152611b3b828261190d565b91505060408301518482036040860152611b55828261190d565b91505060608301518482036060860152611b6f828261190d565b91505060808301518482036080860152611b89828261190d565b91505060a083015184820360a0860152611ba3828261190d565b91505060c083015184820360c0860152611bbd828261190d565b91505060e083015184820360e0860152611bd7828261190d565b915050610100830151611bee610100860182611946565b508091505092915050565b60006020820190508181036000830152611c138184611b03565b905092915050565b7f4e487b7100000000000000000000000000000000000000000000000000000000600052602260045260246000fd5b60006002820490506001821680611c6257607f821691505b602082108103611c7557611c74611c1b565b5b50919050565b7f4e487b7100000000000000000000000000000000000000000000000000000000600052603260045260246000fd5b7f4e487b7100000000000000000000000000000000000000000000000000000000600052601160045260246000fd5b6000611ce48261140f565b91507fffffffffffffffffffffffffffffffffffffffffffffffffffffffffffffffff8203611d1657611d15611caa565b5b600182019050919050565b7f56616c7565206d7573742062652067726561746572207468616e203000000000600082015250565b6000611d57601c8361147d565b9150611d6282611d21565b602082019050919050565b60006020820190508181036000830152611d8681611d4a565b9050919050565b60008190508160005260206000209050919050565b60006020601f8301049050919050565b600082821b905092915050565b600060088302611def7fffffffffffffffffffffffffffffffffffffffffffffffffffffffffffffffff82611db2565b611df98683611db2565b95508019841693508086168417925050509392505050565b6000819050919050565b6000611e36611e31611e2c8461140f565b611e11565b61140f565b9050919050565b6000819050919050565b611e5083611e1b565b611e64611e5c82611e3d565b848454611dbf565b825550505050565b600090565b611e79611e6c565b611e84818484611e47565b505050565b5b81811015611ea857611e9d600082611e71565b600181019050611e8a565b5050565b601f821115611eed57611ebe81611d8d565b611ec784611da2565b81016020851015611ed6578190505b611eea611ee285611da2565b830182611e89565b50505b505050565b600082821c905092915050565b6000611f1060001984600802611ef2565b1980831691505092915050565b6000611f298383611eff565b9150826002028217905092915050565b611f4282611472565b67ffffffffffffffff811115611f5b57611f5a6115fb565b5b611f658254611c4a565b611f70828285611eac565b600060209050601f831160018114611fa35760008415611f91578287015190505b611f9b8582611f1d565b865550612003565b601f198416611fb186611d8d565b60005b82811015611fd957848901518255600182019150602085019450602081019050611fb4565b86831015611ff65784890151611ff2601f891682611eff565b8355505b6001600288020188555050505b505050505050565b6000604082019050818103600083015261202581856114c9565b90506120346020830184611502565b9392505050565b60006120468261140f565b91506120518361140f565b925082820390508181111561206957612068611caa565b5b92915050565b7f4e487b7100000000000000000000000000000000000000000000000000000000600052601260045260246000fd5b60006120a98261140f565b91506120b48361140f565b9250826120c4576120c361206f565b5b828204905092915050565b60006120da8261140f565b91506120e58361140f565b9250826120f5576120f461206f565b5b828206905092915050565b600061210b8261140f565b91506121168361140f565b925082820190508082111561212e5761212d611caa565b5b9291505056fea264697066735822122084431ea0a78bfdc128568f315ca4191edb71c11ea49d17e898af09f1671a257464736f6c63430008130033",
  "immutableReferences": {},
  "source": "// SPDX-License-Identifier: MIT\npragma solidity ^0.8.19;\n\ncontract VisitorAuth {\n    struct Visitor {\n        string name;\n        string email;\n        string add;\n        string phone;\n        string purpose;\n        string types;\n        string toMeet;\n        string meetPersonemail;\n        uint256 date;\n    }\n\n    mapping(uint256 => Visitor) public visitors;\n    uint256 public lastVisitorId = 0;\n\n    event VisitorRegistered(\n        uint256 indexed visitorId,\n        string name,\n        uint256 date\n    );\n\n    // Function to register a visitor\n    function registerVisitor(\n        string memory _name,\n        string memory _email,\n        string memory _address,\n        string memory _phone,\n        string memory _purpose,\n        string memory _types,\n        string memory _toMeet,\n        string memory _meetPersonemail,\n        uint256 _date // Date in \"DD-MM-YYYY\" format\n    ) public payable {\n        require(msg.value > 0, \"Value must be greater than 0\");\n        lastVisitorId++;\n        visitors[lastVisitorId] = Visitor({\n            name: _name,\n            email: _email,\n            add: _address,\n            phone: _phone,\n            purpose: _purpose,\n            types: _types,\n            toMeet: _toMeet,\n            meetPersonemail: _meetPersonemail,\n            date: _date\n        });\n        // Emit an event for the registered visitor\n        emit VisitorRegistered(lastVisitorId, _name, _date);\n    }\n\n    // Function to retrieve a visitor by ID\n    function getVisitor(\n        uint256 _visitorId\n    ) public view returns (Visitor memory) {\n        return visitors[_visitorId];\n    }\n\n    // Function to retrieve all visitors\n    function getAllVisitors() public view returns (Visitor[] memory) {\n        Visitor[] memory allVisitors = new Visitor[](lastVisitorId);\n        for (uint256 i = 1; i <= lastVisitorId; i++) {\n            allVisitors[i - 1] = visitors[i];\n        }\n        return allVisitors;\n    }\n\n    // Function to calculate total visitors by month\n    function getTotalVisitorsByMonth(\n        uint256 _month\n    ) public view returns (uint256) {\n        uint256 totalVisitors = 0;\n        Visitor[] memory allVisitors = getAllVisitors();\n        for (uint256 i = 0; i < allVisitors.length; i++) {\n            if (getMonth(allVisitors[i].date) == _month) {\n                totalVisitors++;\n            }\n        }\n        return totalVisitors;\n    }\n\n    // Function to calculate total visitors by week\n    function getTotalVisitorsByWeek(\n        uint256 _week\n    ) public view returns (uint256) {\n        uint256 totalVisitors = 0;\n        Visitor[] memory allVisitors = getAllVisitors();\n        for (uint256 i = 0; i < allVisitors.length; i++) {\n            if (getWeek(allVisitors[i].date) == _week) {\n                totalVisitors++;\n            }\n        }\n        return totalVisitors;\n    }\n\n    // Internal function to extract month from Unix timestamp\n    function getMonth(uint256 _timestamp) internal pure returns (uint256) {\n        return ((_timestamp / 2629743) % 12) + 1; // Assuming 30 days in a month\n    }\n\n    // Internal function to extract week from Unix timestamp\n    function getWeek(uint256 _timestamp) internal pure returns (uint256) {\n        return ((_timestamp / 604800) % 52) + 1; // Assuming 7 days in a week\n    }\n}\n",
  "sourcePath": "/home/dev/blockchain/visitor-web/frontend/contracts/VisitorAuth.sol",
  "compiler": {
    "name": "solc",
    "version": "0.8.19+commit.7dd6d404.Emscripten.clang"
  },
  "schemaVersion": "3.4.16",
  "updatedAt": "2024-05-09T03:37:34.509Z",
  "networkType": "ethereum",
  "devdoc": {
    "kind": "dev",
    "methods": {},
    "version": 1
  },
  "userdoc": {
    "kind": "user",
    "methods": {},
    "version": 1
  }
}