{
  "contractName": "VisitorAuth",
  "abi": [
    {
      "anonymous": false,
      "inputs": [
        {
          "indexed": true,
          "internalType": "uint256",
          "name": "visitorId",
          "type": "uint256"
        },
        {
          "indexed": false,
          "internalType": "string",
          "name": "name",
          "type": "string"
        },
        {
          "indexed": false,
          "internalType": "uint256",
          "name": "date",
          "type": "uint256"
        }
      ],
      "name": "VisitorRegistered",
      "type": "event"
    },
    {
      "inputs": [],
      "name": "lastVisitorId",
      "outputs": [
        {
          "internalType": "uint256",
          "name": "",
          "type": "uint256"
        }
      ],
      "stateMutability": "view",
      "type": "function",
      "constant": true
    },
    {
      "inputs": [
        {
          "internalType": "uint256",
          "name": "",
          "type": "uint256"
        }
      ],
      "name": "visitors",
      "outputs": [
        {
          "internalType": "string",
          "name": "name",
          "type": "string"
        },
        {
          "internalType": "string",
          "name": "email",
          "type": "string"
        },
        {
          "internalType": "string",
          "name": "add",
          "type": "string"
        },
        {
          "internalType": "string",
          "name": "phone",
          "type": "string"
        },
        {
          "internalType": "string",
          "name": "purpose",
          "type": "string"
        },
        {
          "internalType": "string",
          "name": "types",
          "type": "string"
        },
        {
          "internalType": "string",
          "name": "toMeet",
          "type": "string"
        },
        {
          "internalType": "string",
          "name": "meetPersonemail",
          "type": "string"
        },
        {
          "internalType": "uint256",
          "name": "date",
          "type": "uint256"
        }
      ],
      "stateMutability": "view",
      "type": "function",
      "constant": true
    },
    {
      "inputs": [
        {
          "internalType": "string",
          "name": "_name",
          "type": "string"
        },
        {
          "internalType": "string",
          "name": "_email",
          "type": "string"
        },
        {
          "internalType": "string",
          "name": "_address",
          "type": "string"
        },
        {
          "internalType": "string",
          "name": "_phone",
          "type": "string"
        },
        {
          "internalType": "string",
          "name": "_purpose",
          "type": "string"
        },
        {
          "internalType": "string",
          "name": "_types",
          "type": "string"
        },
        {
          "internalType": "string",
          "name": "_toMeet",
          "type": "string"
        },
        {
          "internalType": "string",
          "name": "_meetPersonemail",
          "type": "string"
        },
        {
          "internalType": "uint256",
          "name": "_date",
          "type": "uint256"
        }
      ],
      "name": "registerVisitor",
      "outputs": [],
      "stateMutability": "nonpayable",
      "type": "function"
    },
    {
      "inputs": [
        {
          "internalType": "uint256",
          "name": "_visitorId",
          "type": "uint256"
        }
      ],
      "name": "getVisitor",
      "outputs": [
        {
          "components": [
            {
              "internalType": "string",
              "name": "name",
              "type": "string"
            },
            {
              "internalType": "string",
              "name": "email",
              "type": "string"
            },
            {
              "internalType": "string",
              "name": "add",
              "type": "string"
            },
            {
              "internalType": "string",
              "name": "phone",
              "type": "string"
            },
            {
              "internalType": "string",
              "name": "purpose",
              "type": "string"
            },
            {
              "internalType": "string",
              "name": "types",
              "type": "string"
            },
            {
              "internalType": "string",
              "name": "toMeet",
              "type": "string"
            },
            {
              "internalType": "string",
              "name": "meetPersonemail",
              "type": "string"
            },
            {
              "internalType": "uint256",
              "name": "date",
              "type": "uint256"
            }
          ],
          "internalType": "struct VisitorAuth.Visitor",
          "name": "",
          "type": "tuple"
        }
      ],
      "stateMutability": "view",
      "type": "function",
      "constant": true
    },
    {
      "inputs": [],
      "name": "getAllVisitors",
      "outputs": [
        {
          "components": [
            {
              "internalType": "string",
              "name": "name",
              "type": "string"
            },
            {
              "internalType": "string",
              "name": "email",
              "type": "string"
            },
            {
              "internalType": "string",
              "name": "add",
              "type": "string"
            },
            {
              "internalType": "string",
              "name": "phone",
              "type": "string"
            },
            {
              "internalType": "string",
              "name": "purpose",
              "type": "string"
            },
            {
              "internalType": "string",
              "name": "types",
              "type": "string"
            },
            {
              "internalType": "string",
              "name": "toMeet",
              "type": "string"
            },
            {
              "internalType": "string",
              "name": "meetPersonemail",
              "type": "string"
            },
            {
              "internalType": "uint256",
              "name": "date",
              "type": "uint256"
            }
          ],
          "internalType": "struct VisitorAuth.Visitor[]",
          "name": "",
          "type": "tuple[]"
        }
      ],
      "stateMutability": "view",
      "type": "function",
      "constant": true
    }
  ],
  "bytecode": "0x6080604052600060015534801561001557600080fd5b50611ddb806100256000396000f3fe608060405234801561001057600080fd5b50600436106100575760003560e01c806342b71a361461005c5780639315fb4b14610094578063bf6e60bb146100b0578063e653ee7c146100ce578063f8138e95146100ec575b600080fd5b610076600480360381019061007191906111e7565b61011c565b60405161008b999897969594939291906112b3565b60405180910390f35b6100ae60048036038101906100a991906114ad565b6105aa565b005b6100b861071b565b6040516100c59190611657565b60405180910390f35b6100d6610721565b6040516100e39190611883565b60405180910390f35b610106600480360381019061010191906111e7565b610c8a565b604051610113919061199b565b60405180910390f35b600060205280600052604060002060009150905080600001805461013f906119ec565b80601f016020809104026020016040519081016040528092919081815260200182805461016b906119ec565b80156101b85780601f1061018d576101008083540402835291602001916101b8565b820191906000526020600020905b81548152906001019060200180831161019b57829003601f168201915b5050505050908060010180546101cd906119ec565b80601f01602080910402602001604051908101604052809291908181526020018280546101f9906119ec565b80156102465780601f1061021b57610100808354040283529160200191610246565b820191906000526020600020905b81548152906001019060200180831161022957829003601f168201915b50505050509080600201805461025b906119ec565b80601f0160208091040260200160405190810160405280929190818152602001828054610287906119ec565b80156102d45780601f106102a9576101008083540402835291602001916102d4565b820191906000526020600020905b8154815290600101906020018083116102b757829003601f168201915b5050505050908060030180546102e9906119ec565b80601f0160208091040260200160405190810160405280929190818152602001828054610315906119ec565b80156103625780601f1061033757610100808354040283529160200191610362565b820191906000526020600020905b81548152906001019060200180831161034557829003601f168201915b505050505090806004018054610377906119ec565b80601f01602080910402602001604051908101604052809291908181526020018280546103a3906119ec565b80156103f05780601f106103c5576101008083540402835291602001916103f0565b820191906000526020600020905b8154815290600101906020018083116103d357829003601f168201915b505050505090806005018054610405906119ec565b80601f0160208091040260200160405190810160405280929190818152602001828054610431906119ec565b801561047e5780601f106104535761010080835404028352916020019161047e565b820191906000526020600020905b81548152906001019060200180831161046157829003601f168201915b505050505090806006018054610493906119ec565b80601f01602080910402602001604051908101604052809291908181526020018280546104bf906119ec565b801561050c5780601f106104e15761010080835404028352916020019161050c565b820191906000526020600020905b8154815290600101906020018083116104ef57829003601f168201915b505050505090806007018054610521906119ec565b80601f016020809104026020016040519081016040528092919081815260200182805461054d906119ec565b801561059a5780601f1061056f5761010080835404028352916020019161059a565b820191906000526020600020905b81548152906001019060200180831161057d57829003601f168201915b5050505050908060080154905089565b600160008154809291906105bd90611a4c565b91905055506040518061012001604052808a8152602001898152602001888152602001878152602001868152602001858152602001848152602001838152602001828152506000806001548152602001908152602001600020600082015181600001908161062b9190611c40565b5060208201518160010190816106419190611c40565b5060408201518160020190816106579190611c40565b50606082015181600301908161066d9190611c40565b5060808201518160040190816106839190611c40565b5060a08201518160050190816106999190611c40565b5060c08201518160060190816106af9190611c40565b5060e08201518160070190816106c59190611c40565b5061010082015181600801559050506001547fbd9034def32d12808952cf3604a22383c588debbc3db133d61fab9c6f37b6f758a83604051610708929190611d12565b60405180910390a2505050505050505050565b60015481565b6060600060015467ffffffffffffffff81111561074157610740611382565b5b60405190808252806020026020018201604052801561077a57816020015b610767611151565b81526020019060019003908161075f5790505b5090506000600190505b6001548111610c8257600080828152602001908152602001600020604051806101200160405290816000820180546107bb906119ec565b80601f01602080910402602001604051908101604052809291908181526020018280546107e7906119ec565b80156108345780601f1061080957610100808354040283529160200191610834565b820191906000526020600020905b81548152906001019060200180831161081757829003601f168201915b5050505050815260200160018201805461084d906119ec565b80601f0160208091040260200160405190810160405280929190818152602001828054610879906119ec565b80156108c65780601f1061089b576101008083540402835291602001916108c6565b820191906000526020600020905b8154815290600101906020018083116108a957829003601f168201915b505050505081526020016002820180546108df906119ec565b80601f016020809104026020016040519081016040528092919081815260200182805461090b906119ec565b80156109585780601f1061092d57610100808354040283529160200191610958565b820191906000526020600020905b81548152906001019060200180831161093b57829003601f168201915b50505050508152602001600382018054610971906119ec565b80601f016020809104026020016040519081016040528092919081815260200182805461099d906119ec565b80156109ea5780601f106109bf576101008083540402835291602001916109ea565b820191906000526020600020905b8154815290600101906020018083116109cd57829003601f168201915b50505050508152602001600482018054610a03906119ec565b80601f0160208091040260200160405190810160405280929190818152602001828054610a2f906119ec565b8015610a7c5780601f10610a5157610100808354040283529160200191610a7c565b820191906000526020600020905b815481529060010190602001808311610a5f57829003601f168201915b50505050508152602001600582018054610a95906119ec565b80601f0160208091040260200160405190810160405280929190818152602001828054610ac1906119ec565b8015610b0e5780601f10610ae357610100808354040283529160200191610b0e565b820191906000526020600020905b815481529060010190602001808311610af157829003601f168201915b50505050508152602001600682018054610b27906119ec565b80601f0160208091040260200160405190810160405280929190818152602001828054610b53906119ec565b8015610ba05780601f10610b7557610100808354040283529160200191610ba0565b820191906000526020600020905b815481529060010190602001808311610b8357829003601f168201915b50505050508152602001600782018054610bb9906119ec565b80601f0160208091040260200160405190810160405280929190818152602001828054610be5906119ec565b8015610c325780601f10610c0757610100808354040283529160200191610c32565b820191906000526020600020905b815481529060010190602001808311610c1557829003601f168201915b5050505050815260200160088201548152505082600183610c539190611d42565b81518110610c6457610c63611d76565b5b60200260200101819052508080610c7a90611a4c565b915050610784565b508091505090565b610c92611151565b60008083815260200190815260200160002060405180610120016040529081600082018054610cc0906119ec565b80601f0160208091040260200160405190810160405280929190818152602001828054610cec906119ec565b8015610d395780601f10610d0e57610100808354040283529160200191610d39565b820191906000526020600020905b815481529060010190602001808311610d1c57829003601f168201915b50505050508152602001600182018054610d52906119ec565b80601f0160208091040260200160405190810160405280929190818152602001828054610d7e906119ec565b8015610dcb5780601f10610da057610100808354040283529160200191610dcb565b820191906000526020600020905b815481529060010190602001808311610dae57829003601f168201915b50505050508152602001600282018054610de4906119ec565b80601f0160208091040260200160405190810160405280929190818152602001828054610e10906119ec565b8015610e5d5780601f10610e3257610100808354040283529160200191610e5d565b820191906000526020600020905b815481529060010190602001808311610e4057829003601f168201915b50505050508152602001600382018054610e76906119ec565b80601f0160208091040260200160405190810160405280929190818152602001828054610ea2906119ec565b8015610eef5780601f10610ec457610100808354040283529160200191610eef565b820191906000526020600020905b815481529060010190602001808311610ed257829003601f168201915b50505050508152602001600482018054610f08906119ec565b80601f0160208091040260200160405190810160405280929190818152602001828054610f34906119ec565b8015610f815780601f10610f5657610100808354040283529160200191610f81565b820191906000526020600020905b815481529060010190602001808311610f6457829003601f168201915b50505050508152602001600582018054610f9a906119ec565b80601f0160208091040260200160405190810160405280929190818152602001828054610fc6906119ec565b80156110135780601f10610fe857610100808354040283529160200191611013565b820191906000526020600020905b815481529060010190602001808311610ff657829003601f168201915b5050505050815260200160068201805461102c906119ec565b80601f0160208091040260200160405190810160405280929190818152602001828054611058906119ec565b80156110a55780601f1061107a576101008083540402835291602001916110a5565b820191906000526020600020905b81548152906001019060200180831161108857829003601f168201915b505050505081526020016007820180546110be906119ec565b80601f01602080910402602001604051908101604052809291908181526020018280546110ea906119ec565b80156111375780601f1061110c57610100808354040283529160200191611137565b820191906000526020600020905b81548152906001019060200180831161111a57829003601f168201915b505050505081526020016008820154815250509050919050565b6040518061012001604052806060815260200160608152602001606081526020016060815260200160608152602001606081526020016060815260200160608152602001600081525090565b6000604051905090565b600080fd5b600080fd5b6000819050919050565b6111c4816111b1565b81146111cf57600080fd5b50565b6000813590506111e1816111bb565b92915050565b6000602082840312156111fd576111fc6111a7565b5b600061120b848285016111d2565b91505092915050565b600081519050919050565b600082825260208201905092915050565b60005b8381101561124e578082015181840152602081019050611233565b60008484015250505050565b6000601f19601f8301169050919050565b600061127682611214565b611280818561121f565b9350611290818560208601611230565b6112998161125a565b840191505092915050565b6112ad816111b1565b82525050565b60006101208201905081810360008301526112ce818c61126b565b905081810360208301526112e2818b61126b565b905081810360408301526112f6818a61126b565b9050818103606083015261130a818961126b565b9050818103608083015261131e818861126b565b905081810360a0830152611332818761126b565b905081810360c0830152611346818661126b565b905081810360e083015261135a818561126b565b905061136a6101008301846112a4565b9a9950505050505050505050565b600080fd5b600080fd5b7f4e487b7100000000000000000000000000000000000000000000000000000000600052604160045260246000fd5b6113ba8261125a565b810181811067ffffffffffffffff821117156113d9576113d8611382565b5b80604052505050565b60006113ec61119d565b90506113f882826113b1565b919050565b600067ffffffffffffffff82111561141857611417611382565b5b6114218261125a565b9050602081019050919050565b82818337600083830152505050565b600061145061144b846113fd565b6113e2565b90508281526020810184848401111561146c5761146b61137d565b5b61147784828561142e565b509392505050565b600082601f83011261149457611493611378565b5b81356114a484826020860161143d565b91505092915050565b60008060008060008060008060006101208a8c0312156114d0576114cf6111a7565b5b60008a013567ffffffffffffffff8111156114ee576114ed6111ac565b5b6114fa8c828d0161147f565b99505060208a013567ffffffffffffffff81111561151b5761151a6111ac565b5b6115278c828d0161147f565b98505060408a013567ffffffffffffffff811115611548576115476111ac565b5b6115548c828d0161147f565b97505060608a013567ffffffffffffffff811115611575576115746111ac565b5b6115818c828d0161147f565b96505060808a013567ffffffffffffffff8111156115a2576115a16111ac565b5b6115ae8c828d0161147f565b95505060a08a013567ffffffffffffffff8111156115cf576115ce6111ac565b5b6115db8c828d0161147f565b94505060c08a013567ffffffffffffffff8111156115fc576115fb6111ac565b5b6116088c828d0161147f565b93505060e08a013567ffffffffffffffff811115611629576116286111ac565b5b6116358c828d0161147f565b9250506101006116478c828d016111d2565b9150509295985092959850929598565b600060208201905061166c60008301846112a4565b92915050565b600081519050919050565b600082825260208201905092915050565b6000819050602082019050919050565b600082825260208201905092915050565b60006116ba82611214565b6116c4818561169e565b93506116d4818560208601611230565b6116dd8161125a565b840191505092915050565b6116f1816111b1565b82525050565b600061012083016000830151848203600086015261171582826116af565b9150506020830151848203602086015261172f82826116af565b9150506040830151848203604086015261174982826116af565b9150506060830151848203606086015261176382826116af565b9150506080830151848203608086015261177d82826116af565b91505060a083015184820360a086015261179782826116af565b91505060c083015184820360c08601526117b182826116af565b91505060e083015184820360e08601526117cb82826116af565b9150506101008301516117e26101008601826116e8565b508091505092915050565b60006117f983836116f7565b905092915050565b6000602082019050919050565b600061181982611672565b611823818561167d565b9350836020820285016118358561168e565b8060005b85811015611871578484038952815161185285826117ed565b945061185d83611801565b925060208a01995050600181019050611839565b50829750879550505050505092915050565b6000602082019050818103600083015261189d818461180e565b905092915050565b60006101208301600083015184820360008601526118c382826116af565b915050602083015184820360208601526118dd82826116af565b915050604083015184820360408601526118f782826116af565b9150506060830151848203606086015261191182826116af565b9150506080830151848203608086015261192b82826116af565b91505060a083015184820360a086015261194582826116af565b91505060c083015184820360c086015261195f82826116af565b91505060e083015184820360e086015261197982826116af565b9150506101008301516119906101008601826116e8565b508091505092915050565b600060208201905081810360008301526119b581846118a5565b905092915050565b7f4e487b7100000000000000000000000000000000000000000000000000000000600052602260045260246000fd5b60006002820490506001821680611a0457607f821691505b602082108103611a1757611a166119bd565b5b50919050565b7f4e487b7100000000000000000000000000000000000000000000000000000000600052601160045260246000fd5b6000611a57826111b1565b91507fffffffffffffffffffffffffffffffffffffffffffffffffffffffffffffffff8203611a8957611a88611a1d565b5b600182019050919050565b60008190508160005260206000209050919050565b60006020601f8301049050919050565b600082821b905092915050565b600060088302611af67fffffffffffffffffffffffffffffffffffffffffffffffffffffffffffffffff82611ab9565b611b008683611ab9565b95508019841693508086168417925050509392505050565b6000819050919050565b6000611b3d611b38611b33846111b1565b611b18565b6111b1565b9050919050565b6000819050919050565b611b5783611b22565b611b6b611b6382611b44565b848454611ac6565b825550505050565b600090565b611b80611b73565b611b8b818484611b4e565b505050565b5b81811015611baf57611ba4600082611b78565b600181019050611b91565b5050565b601f821115611bf457611bc581611a94565b611bce84611aa9565b81016020851015611bdd578190505b611bf1611be985611aa9565b830182611b90565b50505b505050565b600082821c905092915050565b6000611c1760001984600802611bf9565b1980831691505092915050565b6000611c308383611c06565b9150826002028217905092915050565b611c4982611214565b67ffffffffffffffff811115611c6257611c61611382565b5b611c6c82546119ec565b611c77828285611bb3565b600060209050601f831160018114611caa5760008415611c98578287015190505b611ca28582611c24565b865550611d0a565b601f198416611cb886611a94565b60005b82811015611ce057848901518255600182019150602085019450602081019050611cbb565b86831015611cfd5784890151611cf9601f891682611c06565b8355505b6001600288020188555050505b505050505050565b60006040820190508181036000830152611d2c818561126b565b9050611d3b60208301846112a4565b9392505050565b6000611d4d826111b1565b9150611d58836111b1565b9250828203905081811115611d7057611d6f611a1d565b5b92915050565b7f4e487b7100000000000000000000000000000000000000000000000000000000600052603260045260246000fdfea2646970667358221220b84e0893645f330560fb628d78ce8abd5dd00d0dd1b4250641024e1cebde495a64736f6c63430008130033",
  "immutableReferences": {},
  "source": "// SPDX-License-Identifier: MIT\npragma solidity ^0.8.19;\n\ncontract VisitorAuth {\n    struct Visitor {\n        string name;\n        string email;\n        string add;\n        string phone;\n        string purpose;\n        string types;\n        string toMeet;\n        string meetPersonemail;\n        uint256 date;\n    }\n\n    mapping(uint256 => Visitor) public visitors;\n    uint256 public lastVisitorId = 0;\n\n    event VisitorRegistered(\n        uint256 indexed visitorId,\n        string name,\n        uint256 date\n    );\n\n    function registerVisitor(\n        string memory _name,\n        string memory _email,\n        string memory _address,\n        string memory _phone,\n        string memory _purpose,\n        string memory _types,\n        string memory _toMeet,\n        string memory _meetPersonemail,\n        uint256 _date\n    ) public {\n        lastVisitorId++;\n        visitors[lastVisitorId] = Visitor({\n            name: _name,\n            email: _email,\n            add: _address,\n            phone: _phone,\n            purpose: _purpose,\n            types: _types,\n            toMeet: _toMeet,\n            meetPersonemail: _meetPersonemail,\n            date: _date\n        });\n        emit VisitorRegistered(lastVisitorId, _name, _date);\n    }\n\n    function getVisitor(\n        uint256 _visitorId\n    ) public view returns (Visitor memory) {\n        return visitors[_visitorId];\n    }\n\n    function getAllVisitors() public view returns (Visitor[] memory) {\n        Visitor[] memory allVisitors = new Visitor[](lastVisitorId);\n        for (uint256 i = 1; i <= lastVisitorId; i++) {\n            allVisitors[i - 1] = visitors[i];\n        }\n        return allVisitors;\n    }\n}\n",
  "sourcePath": "/home/dev/blockchain/visitor-web/frontend/contracts/VisitorAuth.sol",
  "compiler": {
    "name": "solc",
    "version": "0.8.19+commit.7dd6d404.Emscripten.clang"
  },
  "schemaVersion": "3.4.16",
  "updatedAt": "2024-04-24T04:39:36.151Z",
  "networkType": "ethereum",
  "devdoc": {
    "kind": "dev",
    "methods": {},
    "version": 1
  },
  "userdoc": {
    "kind": "user",
    "methods": {},
    "version": 1
  }
}